:020000040000FA
:100000000C9497000C94BF000C94BF000C94BF009C
:100010000C94BF000C94BF000C94BF000C94BF0064
:100020000C94BF000C94BF000C94BF000C94BF0054
:100030000C94BF000C94BF000C94BF000C94BF0044
:100040000C941F020C94BF000C948F020C94690254
:100050000C94BF000C94BF000C94BF000C94BF0024
:100060000C94BF000C94BF00036EDB363D9A999947
:10007000993DABAAAA2A3E000000803F084AD73B20
:100080003BCE016E84BCBFFDC12F3D6C74319ABD67
:1000900056833DDA3D00C77F11BED9E4BB4C3E918B
:1000A0006BAAAABE000000803F072C7AA5BA6CC5D7
:1000B00090DA3B9365FC8BBC53F810FD3C56928361
:1000C0004DBD879D3AB63DCBC9BF5BBE73DA0FC944
:1000D0003F05A84CCDB2D44EB93836A9020C50B960
:1000E000918688083CA6AAAA2ABE000000803F008C
:1000F00000000000250028002B0000000000240064
:1001000027002A0004040404040404040202020276
:1001100002020303030303030102040810204080CA
:10012000010204081020010204081020DB0411243D
:100130001FBECFEFD8E0DEBFCDBF11E0A0E0B1E041
:10014000EEEAF1E102C005900D92A232B107D9F7B3
:1001500021E0A2E2B1E001C01D92AC3DB207E1F79F
:1001600010E0C7E9D0E004C02197FE010E94CF084B
:10017000C639D107C9F70E94C1020C94D5080C9466
:100180000000AF92BF92CF92DF92EF92FF920F9357
:100190001F93CF93DF936C017B018B01040F151F1D
:1001A000EB015E01AE18BF08C017D10759F0699185
:1001B000D601ED91FC910190F081E02DC6010995E9
:1001C000892B79F7C501DF91CF911F910F91FF9096
:1001D000EF90DF90CF90BF90AF900895FC01538DCA
:1001E000448D252F30E0842F90E0821B930B541711
:1001F00010F0CF96089501970895FC01918D828D9E
:10020000981761F0A28DAE0FBF2FB11D5D968C9136
:10021000928D9F5F9F73928F90E008958FEF9FEF75
:100220000895FC01918D828D981731F0828DE80F31
:10023000F11D858D90E008958FEF9FEF0895FC01EB
:10024000918D228D892F90E0805C9F4F821B9109B8
:100250008F73992708958FE391E00E941F0121E099
:10026000892B09F420E0822F089580E090E0892B0B
:1002700029F00E942B0181110C9400000895FC01CB
:10028000A48DA80FB92FB11DA35ABF4F2C91848DF7
:1002900090E001968F739927848FA689B7892C9354
:1002A000A089B1898C91837080648C93938D848DA7
:1002B000981306C00288F389E02D80818F7D8083AA
:1002C0000895EF92FF920F931F93CF93DF93EC016A
:1002D00081E0888F9B8D8C8D98131AC0E889F989ED
:1002E000808185FF15C09FB7F894EE89FF896083F0
:1002F000E889F98980818370806480839FBF81E071
:1003000090E0DF91CF911F910F91FF90EF900895B2
:10031000F62E0B8D10E00F5F1F4F0F731127E02E8D
:100320008C8D8E110CC00FB607FCFACFE889F989C5
:10033000808185FFF5CFCE010E943F01F1CFEB8D8B
:10034000EC0FFD2FF11DE35AFF4FF0829FB7F89499
:100350000B8FEA89FB8980818062CFCFCF93DF93B7
:10036000EC01888D8823B9F0AA89BB89E889F989CD
:100370008C9185FD03C0808186FD0DC00FB607FC02
:10038000F7CF8C9185FFF2CF808185FFEDCFCE0135
:100390000E943F01E9CFDF91CF910895FC010190C8
:1003A0000020E9F73197AF01481B590BBC018FE3DF
:1003B00091E00C94C1008F929F92AF92BF920F93E5
:1003C0001F93CF93DF93CDB7DEB7A1970FB6F89405
:1003D000DEBF0FBECDBF19A2423008F44AE08E0145
:1003E0000F5D1F4F842E912CB12CA12CA5019401DF
:1003F0000E94AD08E62FB901CA01EA30F4F4E05DCD
:10040000D801EE938D01232B242B252B79F790E037
:1004100080E0109719F0CD010E94CE01A1960FB691
:10042000F894DEBF0FBECDBFDF91CF911F910F912A
:10043000BF90AF909F908F900895E95CE1CF1F929D
:100440000F920FB60F9211242F933F938F939F9388
:10045000AF93BF9380913B0190913C01A0913D01EE
:10046000B0913E0130913A0123E0230F2D3758F52A
:100470000196A11DB11D20933A0180933B019093F9
:100480003C01A0933D01B0933E01809136019091D3
:100490003701A0913801B09139010196A11DB11D1C
:1004A0008093360190933701A0933801B0933901BE
:1004B000BF91AF919F918F913F912F910F900FBE60
:1004C0000F901F90189526E8230F0296A11DB11DCD
:1004D000D2CF1F920F920FB60F9211242F933F93FA
:1004E0004F935F936F937F938F939F93AF93BF933C
:1004F000EF93FF938FE391E00E943F01FF91EF9113
:10050000BF91AF919F918F917F916F915F914F912B
:100510003F912F910F900FBE0F901F9018951F9233
:100520000F920FB60F9211242F938F939F93EF93F7
:10053000FF93E0914F01F09150018081E0915501CE
:10054000F091560182FD1BC09081809158018F5F10
:100550008F7320915901821741F0E0915801F0E02A
:10056000E15CFE4F958F80935801FF91EF919F9131
:100570008F912F910F900FBE0F901F901895808133
:10058000F4CFCF93DF93CDB7DEB728970FB6F894AB
:10059000DEBF0FBECDBF789484B5826084BD84B5C4
:1005A000816084BD85B5826085BD85B5816085BD6E
:1005B00080916E00816080936E0010928100809126
:1005C00081008260809381008091810081608093AE
:1005D0008100809180008160809380008091B100D3
:1005E00084608093B1008091B00081608093B000FE
:1005F00080917A00846080937A0080917A00826092
:1006000080937A0080917A00816080937A00809153
:100610007A00806880937A001092C100E6E2F1E0EF
:100620002491E2E1F1E084918823C9F090E0880F01
:10063000991FFC01E650FF4F65917491FC01E05158
:10064000FF4FA591B4919FB7F894FB01808120954D
:10065000822380838C91E22FE823EC939FBFE0916B
:100660004F01F091500182E08083E0914B01F091C5
:100670004C011082E0914D01F0914E018FEC80838E
:1006800010925701E0915301F091540186E080836C
:10069000E0915101F0915201808180618083E0916D
:1006A0005101F0915201808188608083E091510175
:1006B000F0915201808180688083E0915101F09136
:1006C000520180818F7D808326E537E346E85AE436
:1006D0006091320170913301809134019091350124
:1006E0000E94D40720E034E244E759E40E94DA058E
:1006F0004B015C0180922E0190922F01A09230015B
:10070000B09231010E94D5056B017C0140902A0115
:1007100050902B0160902C0170902D010E940805D3
:100720009B01AC01C301B2010E941A050E94D505CC
:1007300069837A838B839C83C501B4010E9441083D
:100740000E9486059B01AC01C301B2010E941A05FB
:100750000E9441086D837E838F83988722E538EB62
:100760004EE75FE360912601709127018091280197
:10077000909129010E94D4074B015C0129813A81A3
:100780004B815C81C701B6010E94D4072AE037ED96
:1007900043EA5BE30E94D4079B01AC01C501B401AD
:1007A0000E941A054B015C0180922601909227015C
:1007B000A0922801B092290122E538EB4EE75FE3D1
:1007C0006091220170912301809124019091250173
:1007D0000E94D4072B013C012D813E814F81588519
:1007E000C701B6010E94D4072AE037ED43EA5BE374
:1007F0000E94D4079B01AC01C301B2010E941A05FB
:10080000609322017093230180932401909325012A
:10081000A50194010E94DA050E94A1056B017C01EB
:10082000C0922A01D0922B01E0922C01F0922D016E
:10083000AC019B010E949308882359F182E191E069
:100840000E94CE018EE191E00E94CE0120E030E0D6
:1008500040E85FE36091320170913301809134018F
:10086000909135010E941A05609332017093330113
:10087000809334019093350140E050E0452B09F41A
:1008800023CF0E942B01882309F41ECF0E94000071
:100890001BCF46015701E894B7F82FEF3FEF4FE722
:1008A0005FE7C501B4010E94930881110DC02FEFCD
:1008B0003FEF4FE75FE7C501B4010E94D00518166E
:1008C0001CF486E191E0BCCF2FEF3FEF4FE75FE4F0
:1008D000C701B6010E94C70718161CF48AE191E00F
:1008E000AFCF2FEF3FEF4FE75FECC701B6010E949C
:1008F000D00587FDF3CF20E030E0A901C701B601A4
:100900000E94D00587FF09C06DE28FE391E00E944D
:100910006101F7FAF094F7F8F0942AE037ED43EA32
:100920005BE3C701B6010E941A054B015C010E94FE
:100930004C066B017C010E947B069B01AC01C5014A
:10094000B4010E9419054B015C014AE0C701B601E0
:100950000E94DB016EE28FE391E00E94610120E0E2
:1009600030E040E251E4C501B4010E94D4074B01DC
:100970005C010E944C066B01F12CE12C4AE0C7019E
:10098000B6010E94DB01C701B6010E947B069B01F4
:10099000AC01C501B4010E94190520E030E040E23D
:1009A00051E40E94D4070E944C0690E080E04AE0A7
:1009B0000E94DB0147CFEFE3F1E01382128288EE61
:1009C00093E0A0E0B0E084839583A683B78384E0BE
:1009D00091E09183808385EC90E09587848784EC17
:1009E00090E09787868780EC90E0918B808B81ECFC
:1009F00090E0938B828B82EC90E0958B848B86ECDD
:100A000090E0978B868B118E128E138E148E089524
:100A10009F939F770E94B8060F90002042F4905851
:100A2000A2EA2AED3FE049E450E40E9431050C942B
:100A300079075058BB27AA270E9431050C947907E3
:100A40000E94400738F00E94470720F039F49F3F8A
:100A500019F426F40C9402070EF4E095E7FB0C94CD
:100A6000FC06E92F0E949E0758F3BA176207730726
:100A70008407950720F079F4A6F50C94C0070EF4CE
:100A8000E0950B2EBA2FA02D0B01B90190010C019E
:100A9000CA01A0011124FF27591B99F0593F50F4B6
:100AA000503E68F11A16F040A22F232F342F44270E
:100AB000585FF3CF469537952795A795F040539506
:100AC000C9F77EF41F16BA0B620B730B840BBAF0D6
:100AD0009150A1F0FF0FBB1F661F771F881FC2F741
:100AE0000EC0BA0F621F731F841F48F48795779555
:100AF0006795B795F7959E3F08F0B0CF9395880F0F
:100B000008F09927EE0F9795879508959F939F7703
:100B1000EEE389379E0728F4E8E6F0E00E942C0710
:100B20000CC00E94B8069058A2EA2AED3FE049ECBA
:100B30005FE30E9431050E9479070F9007FC9058EF
:100B40000895DF93DD27B92FBF7740E85FE31616DE
:100B5000170648075B0718F4D92F0E94CC079F930C
:100B60008F937F936F930E948F08ECE7F0E00E94D1
:100B700005070E9479072F913F914F915F910E9445
:100B8000E707DD2351F09058A2EA2AED3FE049EC57
:100B90005FE3D0785D270E943105DF910C947907DF
:100BA0000E94D80608F481E008950E945007E3955A
:100BB0000C948A070E94EE050C9479070E9447075F
:100BC00058F00E94400740F029F45F3F29F00C9450
:100BD000FC0651110C94C1070C9402070E949E0759
:100BE00068F39923B1F3552391F3951B550BBB275C
:100BF000AA2762177307840738F09F5F5F4F220FA1
:100C0000331F441FAA1FA9F335D00E2E3AF0E0E897
:100C100032D091505040E695001CCAF72BD0FE2FE1
:100C200029D0660F771F881FBB1F26173707480775
:100C3000AB07B0E809F0BB0B802DBF01FF2793582D
:100C40005F4F3AF09E3F510578F00C94FC060C94EF
:100C5000C1075F3FE4F3983ED4F386957795679597
:100C6000B795F7959F5FC9F7880F911D9695879562
:100C700097F90895E1E0660F771F881FBB1F621781
:100C800073078407BA0720F0621B730B840BBA0B3F
:100C9000EE1F88F7E09508950E94A60788F09F57F9
:100CA00098F0B92F9927B751B0F0E1F0660F771F90
:100CB000881F991F1AF0BA95C9F714C0B13091F086
:100CC0000E94C007B1E008950C94C007672F782FE9
:100CD0008827B85F39F0B93FCCF38695779567954B
:100CE000B395D9F73EF490958095709561957F4FB7
:100CF0008F4F9F4F0895E89409C097FB3EF490955D
:100D00008095709561957F4F8F4F9F4F9923A9F0E4
:100D1000F92F96E9BB279395F69587957795679573
:100D2000B795F111F8CFFAF4BB0F11F460FF1BC0B7
:100D30006F5F7F4F8F4F9F4F16C0882311F096E94A
:100D400011C0772321F09EE8872F762F05C06623F8
:100D500071F096E8862F70E060E02AF09A95660FB1
:100D6000771F881FDAF7880F9695879597F908956A
:100D7000DF93CF931F930F938B01EC01E9EAF0E02F
:100D80000E9405070E9479079801AE018B01EC01D2
:100D900060E070E080E89FE30E9419050E944F0820
:100DA0009801AE010F911F91CF91DF910C94E7074D
:100DB000990F0008550FAA0BE0E8FEEF161617066C
:100DC000E807F907C0F012161306E407F50798F0D4
:100DD000621B730B840B950B39F40A2661F0232BED
:100DE000242B252B21F408950A2609F4A140A69569
:100DF0008FEF811D811D089597F99F6780E870E04E
:100E000060E008959FEF80EC0895DF93CF931F93E8
:100E10000F93FF92EF92DF927B018C01689406C0E2
:100E2000DA2EEF010E94E707FE01E894A5912591D3
:100E3000359145915591A6F3EF010E943105FE01D0
:100E40009701A801DA9469F7DF90EF90FF900F9176
:100E50001F91CF91DF9108959F938F937F936F930D
:100E6000FF93EF939B01AC010E94D407EF91FF9198
:100E70000E9405072F913F914F915F910C94D407E9
:100E800000240A9416161706180609060895002469
:100E90000A94121613061406050608950C94020708
:100EA0000E94A607D8F3E894E0E0BB279F57F0F034
:100EB0002AED3FE049EC06C0EE0FBB0F661F771F1F
:100EC000881F28F0B23A62077307840728F0B25AE5
:100ED000620B730B840BE3959A9572F7803830F4AC
:100EE0009A95BB0F661F771F881FD2F790480C9406
:100EF0009A08092E0394000C11F4882352F0BB0FBA
:100F000040F4BF2B11F460FF04C06F5F7F4F8F4F21
:100F10009F4F0895EF93E0FF07C0A2EA2AED3FE05C
:100F200049EC5FEB0E9431050E9479070F90039412
:100F300001FC9058E1EDF0E00C942C0757FD90581F
:100F4000440F551F59F05F3F71F04795880F97FB8D
:100F5000991F61F09F3F79F0879508951216130647
:100F60001406551FF2CF4695F1DF08C01616170676
:100F70001806991FF1CF86957105610508940895AB
:100F8000E894BB2766277727CB0197F908950E943D
:100F9000D80608F48FEF08959B01AC0160E070E083
:100FA00080E89FE30C94DA050E94E7070C94790728
:100FB0000E94400738F00E94470720F0952311F067
:100FC0000C94FC060C94020711240C94C1070E9497
:100FD0009E0770F3959FC1F3950F50E0551F629FD8
:100FE000F001729FBB27F00DB11D639FAA27F00D82
:100FF000B11DAA1F649F6627B00DA11D661F829FA9
:101000002227B00DA11D621F739FB00DA11D621F8D
:10101000839FA00D611D221F749F3327A00D611DAA
:10102000231F849F600D211D822F762F6A2F11248C
:101030009F5750409AF0F1F088234AF0EE0FFF1FBF
:10104000BB1F661F771F881F91505040A9F79E3F16
:10105000510580F00C94FC060C94C1075F3FE4F34B
:10106000983ED4F3869577956795B795F795E7956C
:101070009F5FC1F7FE2B880F911D9695879597F975
:1010800008959F930E9450070F9007FCEE5F0C9409
:101090008A0719F416F40C9402070C9498080E941D
:1010A000A607B8F39923C9F3B6F39F57550B87FFEB
:1010B0000E94A6080024A0E640EA900180585695B8
:1010C000979528F4805C660F771F881F20F02617FD
:1010D0003707480730F4621B730B840B2029312932
:1010E0004A2BA69517940794202531254A2758F7AF
:1010F000660F771F881F20F026173707480730F440
:10110000620B730B840B200D311D411DA09581F7DF
:10111000B901842F9158880F9695879508959B0162
:10112000AC010C94D4070E94D806880B990B089543
:101130009F3F31F0915020F4879577956795B7954B
:10114000880F911D9695879597F908959150504075
:10115000660F771F881FD2F70895A1E21A2EAA1BE7
:10116000BB1BFD010DC0AA1FBB1FEE1FFF1FA21757
:10117000B307E407F50720F0A21BB30BE40BF50B54
:10118000661F771F881F991F1A9469F760957095DD
:10119000809590959B01AC01BD01CF010895EE0FA4
:1011A000FF1F0590F491E02D0994F894FFCF000003
:1011B00000006101C100EE00AE011F01FD00110140
:1011C0006E616E00696E66006F7666000D0A000043
:107E0000112484B714BE81FFF0D085E080938100F7
:107E100082E08093C00088E18093C10086E0809377
:107E2000C20080E18093C4008EE0C9D0259A86E02C
:107E300020E33CEF91E0309385002093840096BBD3
:107E4000B09BFECF1D9AA8958150A9F7CC24DD24C4
:107E500088248394B5E0AB2EA1E19A2EF3E0BF2EE7
:107E6000A2D0813461F49FD0082FAFD0023811F036
:107E7000013811F484E001C083E08DD089C08234E0
:107E800011F484E103C0853419F485E0A6D080C0E4
:107E9000853579F488D0E82EFF2485D0082F10E0AE
:107EA000102F00270E291F29000F111F8ED06801E7
:107EB0006FC0863521F484E090D080E0DECF843638
:107EC00009F040C070D06FD0082F6DD080E0C81688
:107ED00080E7D80618F4F601B7BEE895C0E0D1E017
:107EE00062D089930C17E1F7F0E0CF16F0E7DF06D8
:107EF00018F0F601B7BEE89568D007B600FCFDCFD4
:107F0000A601A0E0B1E02C9130E011968C91119780
:107F100090E0982F8827822B932B1296FA010C0160
:107F200087BEE89511244E5F5F4FF1E0A038BF0790
:107F300051F7F601A7BEE89507B600FCFDCF97BE46
:107F4000E89526C08437B1F42ED02DD0F82E2BD052
:107F50003CD0F601EF2C8F010F5F1F4F84911BD097
:107F6000EA94F801C1F70894C11CD11CFA94CF0C13
:107F7000D11C0EC0853739F428D08EE10CD085E9AC
:107F80000AD08FE07ACF813511F488E018D01DD067
:107F900080E101D065CF982F8091C00085FFFCCF94
:107FA0009093C60008958091C00087FFFCCF809118
:107FB000C00084FD01C0A8958091C6000895E0E648
:107FC000F0E098E1908380830895EDDF803219F02E
:107FD00088E0F5DFFFCF84E1DECF1F93182FE3DFCA
:107FE0001150E9F7F2DF1F91089580E0E8DFEE27F6
:047FF000FF270994CA
:027FFE00040479
:00000001FF
