:100000000C9444000C946C000C946C000C946C00E8
:100010000C946C000C946C000C946C000C946C00B0
:100020000C946C000C946C000C946C000C946C00A0
:100030000C946C000C946C000C946C000C946C0090
:100040000C94A8020C946C000C9418030C94F2020B
:100050000C946C000C946C000C946C000C946C0070
:100060000C946C000C946C0005A84CCDB2D44EB925
:100070003836A9020C50B9918688083CA6AAAA2A4B
:10008000BE000000803F220511241FBECFEFD8E044
:10009000DEBFCDBF11E0A0E0B1E0E4E9F0E102C0D5
:1000A00005900D92A834B107D9F722E0A8E4B1E099
:1000B00001C01D92AA30B207E1F710E0C4E4D0E01D
:1000C00004C02197FE010E944208C334D107C9F73A
:1000D0000E944A030C9448080C940000AF92BF920F
:1000E000CF92DF92EF92FF920F931F93CF93DF9304
:1000F0006C017B018B01040F151FEB015E01AE1833
:10010000BF08C017D10759F06991D601ED91FC9154
:100110000190F081E02DC6010995892B79F7C50181
:10012000DF91CF911F910F91FF90EF90DF90CF90D3
:10013000BF90AF900895FC01538D448D252F30E082
:10014000842F90E0821B930B541710F0CF960895E4
:1001500001970895FC01918D828D981761F0A28D11
:10016000AE0FBF2FB11D5D968C91928D9F5F9F73D7
:10017000928F90E008958FEF9FEF0895FC01918D8D
:10018000828D981731F0828DE80FF11D858D90E0FA
:1001900008958FEF9FEF0895FC01918D228D892F97
:1001A00090E0805C9F4F821B91098F73992708957F
:1001B0008DE691E00E94CC0021E0892B09F420E03B
:1001C000822F089580E090E0892B29F00E94D800CA
:1001D00081110C9400000895FC01A48DA80FB92F83
:1001E000B11DA35ABF4F2C91848D90E001968F735F
:1001F0009927848FA689B7892C93A089B1898C917E
:10020000837080648C93938D848D981306C00288CC
:10021000F389E02D80818F7D80830895EF92FF9296
:100220000F931F93CF93DF93EC0181E0888F9B8D19
:100230008C8D98131AC0E889F989808185FF15C0D3
:100240009FB7F894EE89FF896083E889F9898081F6
:100250008370806480839FBF81E090E0DF91CF91C5
:100260001F910F91FF90EF900895F62E0B8D10E0E7
:100270000F5F1F4F0F731127E02E8C8D8E110CC056
:100280000FB607FCFACFE889F989808185FFF5CFA1
:10029000CE010E94EC00F1CFEB8DEC0FFD2FF11D94
:1002A000E35AFF4FF0829FB7F8940B8FEA89FB89DE
:1002B00080818062CFCFCF93DF93EC01888D88233C
:1002C000B9F0AA89BB89E889F9898C9185FD03C0B9
:1002D000808186FD0DC00FB607FCF7CF8C9185FF9E
:1002E000F2CF808185FFEDCFCE010E94EC00E9CFF7
:1002F000DF91CF910895FC0101900020E9F731973B
:10030000AF01481B590BBC018DE691E00C946E00C7
:100310008F929F92AF92BF920F931F93CF93DF93D1
:10032000CDB7DEB7A1970FB6F894DEBF0FBECDBF35
:1003300019A2423008F44AE08E010F5D1F4F842E4F
:10034000912CB12CA12CA50194010E942008E62F2C
:10035000B901CA01EA30F4F4E05DD801EE938D01F1
:10036000232B242B252B79F790E080E0109719F0B0
:10037000CD010E947B01A1960FB6F894DEBF0FBE9F
:10038000CDBFDF91CF911F910F91BF90AF909F9004
:100390008F900895E95CE1CF4F925F926F927F92C8
:1003A0008F929F92AF92BF92CF92DF92EF92FF9285
:1003B0000F931F93CF936B017C01742EAC019B01B3
:1003C0000E94D207882399F086E191E0CF911F9196
:1003D0000F91FF90EF90DF90CF90BF90AF909F90E4
:1003E0008F907F906F905F904F900C947B014601AF
:1003F0005701E894B7F82FEF3FEF4FE75FE7C501EC
:10040000B4010E94D20781110DC02FEF3FEF4FE7DB
:100410005FE7C501B4010E94BC0518161CF48AE10F
:1004200091E0D4CF2FEF3FEF4FE75FE4C701B60174
:100430000E94580718161CF48EE191E0C7CF2FEFE9
:100440003FEF4FE75FECC701B6010E94BC0587FD97
:10045000F3CF20E030E0A901C701B6010E94BC053E
:1004600010E000E087FF0AC06DE28DE691E00E9497
:100470000E018C01F7FAF094F7F8F094C0E060E018
:1004800070E080E09FE37C1641F020E030E040E245
:1004900051E40E94C605CF5FF6CFA70196010E94E6
:1004A00050052B013C010E9438064B015C014AE0DB
:1004B0000E9488017C01E00EF11ECC23C1F1C50130
:1004C000B4010E9467069B01AC01C301B2010E9406
:1004D0004F054B015C016EE28DE691E00E940E013A
:1004E000E80EF91EC15018F120E030E040E251E47E
:1004F000C501B4010E945D072B013C010E94380632
:100500004B01B12CA12C4AE0C501B4010E94880125
:10051000E80EF91EC501B4010E9467069B01AC01FB
:10052000C301B2010E944F054B015C01DBCFC70143
:10053000CF911F910F91FF90EF90DF90CF90BF90E0
:10054000AF909F908F907F906F905F904F900895A5
:100550001F920F920FB60F9211242F933F938F93F8
:100560009F93AF93BF938091690190916A01A0918D
:100570006B01B0916C013091680123E0230F2D379E
:1005800058F50196A11DB11D209368018093690162
:1005900090936A01A0936B01B0936C018091640108
:1005A00090916501A0916601B09167010196A11D2E
:1005B000B11D8093640190936501A0936601B0938F
:1005C0006701BF91AF919F918F913F912F910F90B4
:1005D0000FBE0F901F90189526E8230F0296A11DBD
:1005E000B11DD2CF1F920F920FB60F9211242F93ED
:1005F0003F934F935F936F937F938F939F93AF93AB
:10060000BF93EF93FF938DE691E00E94EC00FF9182
:10061000EF91BF91AF919F918F917F916F915F917A
:100620004F913F912F910F900FBE0F901F901895F3
:100630001F920F920FB60F9211242F938F939F93B7
:10064000EF93FF93E0917D01F0917E018081E09135
:100650008301F091840182FD1BC09081809186010D
:100660008F5F8F7320918701821741F0E09186019F
:10067000F0E0E359FE4F958F80938601FF91EF9153
:100680009F918F912F910F900FBE0F901F901895F3
:100690008081F4CFCF93DF93CDB7DEB72C970FB621
:1006A000F894DEBF0FBECDBF789484B5826084BD60
:1006B00084B5816084BD85B5826085BD85B5816066
:1006C00085BD80916E00816080936E0010928100E4
:1006D000809181008260809381008091810081609F
:1006E0008093810080918000816080938000809160
:1006F000B10084608093B1008091B00081608093EC
:10070000B00080917A00846080937A0080917A00B2
:10071000826080937A0080917A00816080937A0071
:1007200080917A00806880937A001092C100E091F5
:100730007D01F0917E0182E08083E0917901F0916A
:100740007A011082E0917B01F0917C018FEC808333
:1007500010928501E0918101F091820186E0808311
:10076000E0917F01F0918001808180618083E09140
:100770007F01F0918001808188608083E0917F011A
:10078000F0918001808180688083E0917F01F09109
:10079000800180818F7D8083109200011092010181
:1007A0001092020110920301C0900001D09001014B
:1007B000E0900201F090030120E03CE742E958E4B8
:1007C000C701B6010E94BC0587FF2FC1609160017F
:1007D0007091610180916201909163010E94C10555
:1007E0002B013C0140925C0150925D0160925E01E0
:1007F00070925F0129EE35E649E159E4C701B6017F
:100800000E945D0720E03CE742E958E40E94C605EB
:100810006B017C01C0926001D0926101E0926201A3
:10082000F0926301209158013091590140915A0191
:1008300050915B010E9450050E94C1056D837E832B
:100840008F8398878091540190915501A091560112
:10085000B091570189839A83AB83BC839C01AD011E
:10086000C701B6010E9450050E94CA0769877A87AE
:100870008B879C8721ED32E24BE75FE3609150016B
:100880007091510180915201909153010E945D0736
:100890004B015C012D813E814F815885C301B2011E
:1008A0000E945D0723EE35EA4BE95CE30E945D0799
:1008B0009B01AC01C501B4010E9450054B015C01D4
:1008C0008092580190925901A0925A01B0925B0116
:1008D0008092500190925101A0925201B092530126
:1008E00029853A854B855C85C301B2010E945D076D
:1008F00023EE35EA4BE95CE30E945D072B013C01E6
:1009000021ED32E24BE75FE369817A818B819C8143
:100910000E945D079B01AC01C301B2010E9450051A
:100920002B013C01409254015092550160925601B6
:100930007092570121ED32E24BE75FE360914C0189
:1009400070914D0180914E0190914F010E945D0781
:1009500069837A838B839C83A3019201C501B401CF
:100960000E945D0723EE35EA4BE95CE30E945D07D8
:100970009B01AC0169817A818B819C810E94500529
:100980009B01AC0120934C0130934D0140934E01EB
:1009900050934F01C701B6010E9450050E94C10546
:1009A000609348017093490180934A0190934B01F1
:1009B00082E291E00E947B0160915C0170915D0197
:1009C00080915E0190915F0142E00E94CC0183E33F
:1009D00091E00E947B0186E391E00E947B0160919F
:1009E00048017091490180914A0190914B0142E088
:1009F0000E94CC0183E391E00E947B0120E030E083
:100A000040E85FE360910001709101018091020173
:100A1000909103010E9450056093000170930101C1
:100A20008093020190930301BFCEA0E0B0E0AB2B16
:100A300009F4B2CE0E94D800882309F4ADCE0E94FA
:100A40000000AACEEDE6F1E01382128288EE93E078
:100A5000A0E0B0E084839583A683B78388E091E02B
:100A60009183808385EC90E09587848784EC90E087
:100A70009787868780EC90E0918B808B81EC90E06B
:100A8000938B828B82EC90E0958B848B86EC90E04C
:100A9000978B868B118E128E138E148E089550585C
:100AA000BB27AA270E9467050C940A070E94D1065B
:100AB00038F00E94D80620F039F49F3F19F426F44C
:100AC0000C94CE060EF4E095E7FB0C94C806E92FD3
:100AD0000E942F0758F3BA17620773078407950718
:100AE00020F079F4A6F50C9451070EF4E0950B2E46
:100AF000BA2FA02D0B01B90190010C01CA01A00170
:100B00001124FF27591B99F0593F50F4503E68F1CA
:100B10001A16F040A22F232F342F4427585FF3CF0B
:100B2000469537952795A795F0405395C9F77EF4DC
:100B30001F16BA0B620B730B840BBAF09150A1F025
:100B4000FF0FBB1F661F771F881FC2F70EC0BA0FAB
:100B5000621F731F841F48F4879577956795B79533
:100B6000F7959E3F08F0B0CF9395880F08F099272E
:100B7000EE0F9795879508950E94A40608F481E0EA
:100B800008950E94E106E3950C941B070E94DA0584
:100B90000C940A070E94D80658F00E94D10640F033
:100BA00029F45F3F29F00C94C80651110C945207A8
:100BB0000C94CE060E942F0768F39923B1F35523B6
:100BC00091F3951B550BBB27AA2762177307840760
:100BD00038F09F5F5F4F220F331F441FAA1FA9F3F6
:100BE00035D00E2E3AF0E0E832D091505040E695E4
:100BF000001CCAF72BD0FE2F29D0660F771F881F45
:100C0000BB1F261737074807AB07B0E809F0BB0B37
:100C1000802DBF01FF2793585F4F3AF09E3F51054B
:100C200078F00C94C8060C9452075F3FE4F3983EAA
:100C3000D4F3869577956795B795F7959F5FC9F734
:100C4000880F911D9695879597F90895E1E0660FB5
:100C5000771F881FBB1F621773078407BA0720F02E
:100C6000621B730B840BBA0BEE1F88F7E095089597
:100C70000E94370788F09F5798F0B92F9927B751EE
:100C8000B0F0E1F0660F771F881F991F1AF0BA9530
:100C9000C9F714C0B13091F00E945107B1E0089536
:100CA0000C945107672F782F8827B85F39F0B93F28
:100CB000CCF3869577956795B395D9F73EF49095E3
:100CC0008095709561957F4F8F4F9F4F0895E89461
:100CD00009C097FB3EF490958095709561957F4F84
:100CE0008F4F9F4F9923A9F0F92F96E9BB27939532
:100CF000F695879577956795B795F111F8CFFAF442
:100D0000BB0F11F460FF1BC06F5F7F4F8F4F9F4F72
:100D100016C0882311F096E911C0772321F09EE8D0
:100D2000872F762F05C0662371F096E8862F70E036
:100D300060E02AF09A95660F771F881FDAF7880F10
:100D40009695879597F90895990F0008550FAA0B66
:100D5000E0E8FEEF16161706E807F907C0F01216CE
:100D60001306E407F50798F0621B730B840B950BD1
:100D700039F40A2661F0232B242B252B21F4089526
:100D80000A2609F4A140A6958FEF811D811D0895C3
:100D900097F99F6780E870E060E008959FEF80EC2E
:100DA000089500240A9416161706180609060895D1
:100DB00000240A94121613061406050608950C94CE
:100DC000CE060E943707D8F3E894E0E0BB279F5790
:100DD000F0F02AED3FE049EC06C0EE0FBB0F661FB6
:100DE000771F881F28F0B23A62077307840728F03C
:100DF000B25A620B730B840BE3959A9572F78038A5
:100E000030F49A95BB0F661F771F881FD2F7904862
:100E10000C94D907092E0394000C11F4882352F086
:100E2000BB0F40F4BF2B11F460FF04C06F5F7F4F16
:100E30008F4F9F4F0895EF93E0FF07C0A2EA2AED7E
:100E40003FE049EC5FEB0E9467050E940A070F90A4
:100E5000039401FC9058E8E6F0E00C94E50757FD98
:100E60009058440F551F59F05F3F71F04795880F18
:100E700097FB991F61F09F3F79F0879508951216AF
:100E800013061406551FF2CF4695F1DF08C016165B
:100E900017061806991FF1CF86957105610508940C
:100EA0000895E894BB2766277727CB0197F9089523
:100EB0000E94A40608F48FEF08950E9470070C9416
:100EC0000A070E94D10638F00E94D80620F0952328
:100ED00011F00C94C8060C94CE0611240C94520701
:100EE0000E942F0770F3959FC1F3950F50E0551F97
:100EF000629FF001729FBB27F00DB11D639FAA276F
:100F0000F00DB11DAA1F649F6627B00DA11D661FBD
:100F1000829F2227B00DA11D621F739FB00DA11DDE
:100F2000621F839FA00D611D221F749F3327A00D98
:100F3000611D231F849F600D211D822F762F6A2F34
:100F400011249F5750409AF0F1F088234AF0EE0F99
:100F5000FF1FBB1F661F771F881F91505040A9F7C6
:100F60009E3F510580F00C94C8060C9452075F3FD9
:100F7000E4F3983ED4F3869577956795B795F79502
:100F8000E7959F5FC1F7FE2B880F911D969587957A
:100F900097F908959F930E94E1060F9007FCEE5F7A
:100FA0000C941B070E94A406880B990B08959F3F81
:100FB00031F0915020F4879577956795B795880F14
:100FC000911D9695879597F908959F938F937F9399
:100FD0006F93FF93EF939B01AC010E945D07EF912C
:100FE000FF910E94F9072F913F914F915F910C94CF
:100FF0005D07DF93CF931F930F93FF92EF92DF92E2
:101000007B018C01689406C0DA2EEF010E94700704
:10101000FE01E894A5912591359145915591A6F34E
:10102000EF010E946705FE019701A801DA9469F7B4
:10103000DF90EF90FF900F911F91CF91DF91089576
:10104000A1E21A2EAA1BBB1BFD010DC0AA1FBB1FCC
:10105000EE1FFF1FA217B307E407F50720F0A21B3E
:10106000B30BE40BF50B661F771F881F991F1A94AB
:1010700069F760957095809590959B01AC01BD01D5
:10108000CF010895EE0FFF1F0590F491E02D099414
:04109000F894FFCF02
:101094000000803F000000000E016E009B005B0119
:1010A400CC00AA00BE006E616E00696E66006F76A9
:1010B40066005265636569766564205369676E618D
:1010C4006C20000D0A004F7363696C6C61746F725D
:0810D400205369676E616C0096
:00000001FF
