:020000040000FA
:100000000C9458000C9480000C9480000C94800098
:100010000C9480000C9480000C9480000C94800060
:100020000C9480000C9480000C9480000C94800050
:100030000C9480000C9480000C9480000C94800040
:100040000C94E0010C9480000C9450020C942A0251
:100050000C9480000C9480000C9480000C94800020
:100060000C9480000C948000072C7AA5BA6CC59083
:10007000DA3B9365FC8BBC53F810FD3C5692834DE4
:10008000BD879D3AB63DCBC9BF5BBE73DA0FC93F92
:1000900005A84CCDB2D44EB93836A9020C50B9914E
:1000A0008688083CA6AAAA2ABE000000803F340425
:1000B00011241FBECFEFD8E0DEBFCDBF11E0A0E01E
:1000C000B1E0EAEAFFE002C005900D92A232B1076A
:1000D000D9F721E0A2E2B1E001C01D92A43DB20730
:1000E000E1F710E0C8E5D0E004C02197FE010E94CE
:1000F000CD07C735D107C9F70E9482020C94D307F8
:100100000C940000AF92BF92CF92DF92EF92FF92D9
:100110000F931F93CF93DF936C017B018B01040F2F
:10012000151FEB015E01AE18BF08C017D10759F0CB
:100130006991D601ED91FC910190F081E02DC6010D
:100140000995892B79F7C501DF91CF911F910F9107
:10015000FF90EF90DF90CF90BF90AF900895FC019B
:10016000538D448D252F30E0842F90E0821B930B1C
:10017000541710F0CF96089501970895FC01918DC2
:10018000828D981761F0A28DAE0FBF2FB11D5D96C5
:100190008C91928D9F5F9F73928F90E008958FEF67
:1001A0009FEF0895FC01918D828D981731F0828D1B
:1001B000E80FF11D858D90E008958FEF9FEF089572
:1001C000FC01918D228D892F90E0805C9F4F821BD6
:1001D00091098F739927089587E391E00E94E000C9
:1001E00021E0892B09F420E0822F089580E090E03F
:1001F000892B29F00E94EC0081110C9400000895D5
:10020000FC01A48DA80FB92FB11DA35ABF4F2C918B
:10021000848D90E001968F739927848FA689B78982
:100220002C93A089B1898C91837080648C93938D79
:10023000848D981306C00288F389E02D80818F7D1C
:1002400080830895EF92FF920F931F93CF93DF93D4
:10025000EC0181E0888F9B8D8C8D98131AC0E88902
:10026000F989808185FF15C09FB7F894EE89FF89D1
:100270006083E889F98980818370806480839FBF6F
:1002800081E090E0DF91CF911F910F91FF90EF906F
:100290000895F62E0B8D10E00F5F1F4F0F7311277F
:1002A000E02E8C8D8E110CC00FB607FCFACFE889BA
:1002B000F989808185FFF5CFCE010E940001F1CF41
:1002C000EB8DEC0FFD2FF11DE35AFF4FF0829FB72E
:1002D000F8940B8FEA89FB8980818062CFCFCF931E
:1002E000DF93EC01888D8823B9F0AA89BB89E8895E
:1002F000F9898C9185FD03C0808186FD0DC00FB604
:1003000007FCF7CF8C9185FFF2CF808185FFEDCF81
:10031000CE010E940001E9CFDF91CF910895FC0149
:1003200001900020E9F73197AF01481B590BBC0140
:1003300087E391E00C9482008F929F92AF92BF92DC
:100340000F931F93CF93DF93CDB7DEB7A1970FB66F
:10035000F894DEBF0FBECDBF19A2423008F44AE0C8
:100360008E010F5D1F4F842E912CB12CA12CA50165
:1003700094010E94AB07E62FB901CA01EA30F4F4F8
:10038000E05DD801EE938D01232B242B252B79F7EB
:1003900090E080E0109719F0CD010E948F01A196A6
:1003A0000FB6F894DEBF0FBECDBFDF91CF911F9186
:1003B0000F91BF90AF909F908F900895E95CE1CF2F
:1003C0001F920F920FB60F9211242F933F938F938A
:1003D0009F93AF93BF938091330190913401A0918B
:1003E0003501B09136013091320123E0230F2D37D2
:1003F00058F50196A11DB11D209332018093330160
:1004000090933401A0933501B093360180912E0171
:1004100090912F01A0913001B09131010196A11D61
:10042000B11D80932E0190932F01A0933001B093C2
:100430003101BF91AF919F918F913F912F910F907B
:100440000FBE0F901F90189526E8230F0296A11D4E
:10045000B11DD2CF1F920F920FB60F9211242F937E
:100460003F934F935F936F937F938F939F93AF933C
:10047000BF93EF93FF9387E391E00E940001FF9108
:10048000EF91BF91AF919F918F917F916F915F910C
:100490004F913F912F910F900FBE0F901F90189585
:1004A0001F920F920FB60F9211242F938F939F9349
:1004B000EF93FF93E0914701F09148018081E09133
:1004C0004D01F0914E0182FD1BC090818091500141
:1004D0008F5F8F7320915101821741F0E09150019D
:1004E000F0E0E95CFE4F958F80935001FF91EF9112
:1004F0009F918F912F910F900FBE0F901F90189585
:100500008081F4CFCF93DF9300D000D0CDB7DEB79A
:10051000789484B5826084BD84B5816084BD85B5DE
:10052000826085BD85B5816085BD80916E008160EA
:1005300080936E0010928100809181008260809390
:100540008100809181008160809381008091800092
:100550008160809380008091B10084608093B100BD
:100560008091B00081608093B00080917A008460B7
:1005700080937A0080917A00826080937A008091E3
:100580007A00816080937A0080917A0080688093FD
:100590007A001092C100E0914701F091480182E099
:1005A0008083E0914301F09144011082E091450184
:1005B000F09146018FEC808310924F01E0914B0146
:1005C000F0914C0186E08083E0914901F0914A016D
:1005D000808180618083E0914901F0914A018081AE
:1005E00088608083E0914901F0914A0180818068B0
:1005F0008083E0914901F0914A0180818F7D808361
:1006000080902A0190902B01A0902C01B0902D0198
:100610002BED3FE645E757E4C501B4010E94830690
:1006200020E030E44CE156E40E94E4046B017C01DC
:100630000E94F0062B013C01609126017091270178
:1006400080912801909129019B01AC010E947304C3
:100650000E9461049B01AC01C701B6010E947304B2
:100660000E94F00669837A838B839C8326E636E6B4
:1006700046E65FE36091220170912301809124019D
:10068000909125010E9483066B017C0129813A81AA
:100690004B815C81C301B2010E9483062DEC3CECCE
:1006A0004CEC5DE30E9483069B01AC01C701B601DF
:1006B0000E9473046B017C01C982DA82EB82FC82A6
:1006C000C0922601D0922701E0922801F0922901E0
:1006D00040922201509223016092240170922501E0
:1006E00020E030E040E85FE3C501B4010E947304FC
:1006F00060932A0170932B0180932C0190932D011C
:10070000A7019601C701B6010E943E078823A9F000
:1007100082E191E00E948F018EE191E00E948F01C1
:10072000A0E0B0E0AB2B09F46BCF0E94EC00882373
:1007300009F466CF0E94000063CF46015701E89498
:10074000B7F82FEF3FEF4FE75FE7C501B4010E9415
:100750003E0781110DC02FEF3FEF4FE75FE7C50167
:10076000B4010E94DF0418161CF486E191E0D2CF98
:100770002FEF3FEF4FE75FE4C701B6010E947E060F
:1007800018161CF48AE191E0C5CF2FEF3FEF4FE739
:100790005FECC701B6010E94DF0487FDF3CF20E0C4
:1007A00030E0A901C701B6010E94DF0487FF0CC039
:1007B0006DE287E391E00E942201D701C601B058A3
:1007C00089839A83AB83BC832AE037ED43EA5BE3FA
:1007D00069817A818B819C810E9473044B015C0149
:1007E0000E9456056B017C010E9485059B01AC01AE
:1007F000C501B4010E9472044B015C014AE0C701CB
:10080000B6010E949C016EE287E391E00E94220102
:1008100020E030E040E251E4C501B4010E948306CB
:100820004B015C010E9456056B01F12CE12C4AE062
:10083000C701B6010E949C01C701B6010E9485054F
:100840009B01AC01C501B4010E94720420E030E0BC
:1008500040E251E40E9483060E94560590E080E049
:100860004AE00E949C0158CFE7E3F1E01382128234
:1008700088EE93E0A0E0B0E084839583A683B783FD
:1008800084E091E09183808385EC90E09587848774
:1008900084EC90E09787868780EC90E0918B808B4A
:1008A00081EC90E0938B828B82EC90E0958B848B33
:1008B00086EC90E0978B868B118E128E138E148EA1
:1008C00008959F939F770E94C2050F90002042F4E5
:1008D0009058A2EA2AED3FE049E450E40E948A04DD
:1008E0000C9444065058BB27AA270E948A040C94F3
:1008F00044060E94360638F00E943D0620F039F486
:100900009F3F19F426F40C940C060EF4E095E7FBD7
:100910000C940606E92F0E94550658F3BA17620791
:1009200073078407950720F079F4A6F50C947706F1
:100930000EF4E0950B2EBA2FA02D0B01B9019001FA
:100940000C01CA01A0011124FF27591B99F0593F3E
:1009500050F4503E68F11A16F040A22F232F342F86
:100960004427585FF3CF469537952795A795F040D4
:100970005395C9F77EF41F16BA0B620B730B840BE9
:10098000BAF09150A1F0FF0FBB1F661F771F881FA1
:10099000C2F70EC0BA0F621F731F841F48F48795F9
:1009A00077956795B795F7959E3F08F0B0CF9395EB
:1009B000880F08F09927EE0F9795879508950E9464
:1009C000E20508F481E008950E94F8040C944406BE
:1009D0000E943D0658F00E94360640F029F45F3F21
:1009E00029F00C94060651110C9478060C940C0610
:1009F0000E94550668F39923B1F3552391F3951B93
:100A0000550BBB27AA2762177307840738F09F5F2F
:100A10005F4F220F331F441FAA1FA9F335D00E2E9C
:100A20003AF0E0E832D091505040E695001CCAF709
:100A30002BD0FE2F29D0660F771F881FBB1F2617CC
:100A400037074807AB07B0E809F0BB0B802DBF01A3
:100A5000FF2793585F4F3AF09E3F510578F00C9472
:100A600006060C9478065F3FE4F3983ED4F386952F
:100A700077956795B795F7959F5FC9F7880F911D93
:100A80009695879597F90895E1E0660F771F881F7F
:100A9000BB1F621773078407BA0720F0621B730B32
:100AA000840BBA0BEE1F88F7E09508950E945D064F
:100AB00088F09F5798F0B92F9927B751B0F0E1F01F
:100AC000660F771F881F991F1AF0BA95C9F714C0CF
:100AD000B13091F00E947706B1E008950C9477064A
:100AE000672F782F8827B85F39F0B93FCCF3869508
:100AF00077956795B395D9F73EF490958095709565
:100B000061957F4F8F4F9F4F0895E89409C097FBE1
:100B10003EF490958095709561957F4F8F4F9F4FD4
:100B20009923A9F0F92F96E9BB279395F695879518
:100B300077956795B795F111F8CFFAF4BB0F11F4DB
:100B400060FF1BC06F5F7F4F8F4F9F4F16C0882382
:100B500011F096E911C0772321F09EE8872F762FB8
:100B600005C0662371F096E8862F70E060E02AF0F9
:100B70009A95660F771F881FDAF7880F96958795E5
:100B800097F90895DF93CF931F930F938B01EC0197
:100B9000E8E6F0E00E940F060E9444069801AE01CC
:100BA0008B01EC0160E070E080E89FE30E9472043A
:100BB0000E94FE069801AE010F911F91CF91DF9127
:100BC0000C949606990F0008550FAA0BE0E8FEEF6B
:100BD00016161706E807F907C0F012161306E40701
:100BE000F50798F0621B730B840B950B39F40A26FA
:100BF00061F0232B242B252B21F408950A2609F4D8
:100C0000A140A6958FEF811D811D089597F99F67DB
:100C100080E870E060E008959FEF80EC0895DF9336
:100C2000CF931F930F93FF92EF92DF927B018C0182
:100C3000689406C0DA2EEF010E949606FE01E89441
:100C4000A5912591359145915591A6F3EF010E940B
:100C50008A04FE019701A801DA9469F7DF90EF900A
:100C6000FF900F911F91CF91DF91089500240A9476
:100C70001616170618060906089500240A94121677
:100C80001306140605060895092E0394000C11F4AA
:100C9000882352F0BB0F40F4BF2B11F460FF04C057
:100CA0006F5F7F4F8F4F9F4F089557FD9058440FB0
:100CB000551F59F05F3F71F04795880F97FB991FBB
:100CC00061F09F3F79F08795089512161306140678
:100CD000551FF2CF4695F1DF08C016161706180605
:100CE000991FF1CF86957105610508940895E894E0
:100CF000BB2766277727CB0197F908950E94E20565
:100D000008F48FEF08950E9496060C9444060E9402
:100D1000360638F00E943D0620F0952311F00C9421
:100D200006060C940C0611240C9478060E945506B5
:100D300070F3959FC1F3950F50E0551F629FF0012E
:100D4000729FBB27F00DB11D639FAA27F00DB11D47
:100D5000AA1F649F6627B00DA11D661F829F2227D0
:100D6000B00DA11D621F739FB00DA11D621F839F57
:100D7000A00D611D221F749F3327A00D611D231F2D
:100D8000849F600D211D822F762F6A2F11249F577B
:100D900050409AF0F1F088234AF0EE0FFF1FBB1F7E
:100DA000661F771F881F91505040A9F79E3F51053D
:100DB00080F00C9406060C9478065F3FE4F3983EAE
:100DC000D4F3869577956795B795F795E7959F5FE7
:100DD000C1F7FE2B880F911D9695879597F9089579
:100DE0009F930E945A070F9007FCEE5F0C948307B5
:100DF00019F416F40C940C060C9443070E945D063B
:100E0000B8F39923C9F3B6F39F57550B87FF0E9498
:100E100051070024A0E640EA900180585695979526
:100E200028F4805C660F771F881F20F0261737078D
:100E3000480730F4621B730B840B202931294A2B9D
:100E4000A69517940794202531254A2758F7660F51
:100E5000771F881F20F026173707480730F4620BEA
:100E6000730B840B200D311D411DA09581F7B90135
:100E7000842F9158880F9695879508950E94E205D2
:100E8000880B990B08959F3F31F0915020F487957E
:100E900077956795B795880F911D9695879597F9E2
:100EA000089591505040660F771F881FD2F708951C
:100EB0000C940C060E945D06D8F3E894E0E0BB2792
:100EC0009F57F0F02AED3FE049EC06C0EE0FBB0F54
:100ED000661F771F881F28F0B23A620773078407DE
:100EE00028F0B25A620B730B840BE3959A9572F754
:100EF000803830F49A95BB0F661F771F881FD2F792
:100F000090480C944507EF93E0FF07C0A2EA2AED52
:100F10003FE049EC5FEB0E948A040E9444060F9078
:100F2000039401FC9058E0E9F0E00C9497079F933C
:100F30008F937F936F93FF93EF939B01AC010E947C
:100F40008306EF91FF910E940F062F913F914F91E1
:100F50005F910C948306A1E21A2EAA1BBB1BFD0114
:100F60000DC0AA1FBB1FEE1FFF1FA217B307E40788
:100F7000F50720F0A21BB30BE40BF50B661F771FE0
:100F8000881F991F1A9469F76095709580959095C0
:100F90009B01AC01BD01CF010895EE0FFF1F05902D
:100FA000F491E02D0994F894FFCF00000000220195
:100FB0008200AF006F01E000BE00D2006E616E00E3
:0C0FC000696E66006F7666000D0A000086
:107E0000112484B714BE81FFF0D085E080938100F7
:107E100082E08093C00088E18093C10086E0809377
:107E2000C20080E18093C4008EE0C9D0259A86E02C
:107E300020E33CEF91E0309385002093840096BBD3
:107E4000B09BFECF1D9AA8958150A9F7CC24DD24C4
:107E500088248394B5E0AB2EA1E19A2EF3E0BF2EE7
:107E6000A2D0813461F49FD0082FAFD0023811F036
:107E7000013811F484E001C083E08DD089C08234E0
:107E800011F484E103C0853419F485E0A6D080C0E4
:107E9000853579F488D0E82EFF2485D0082F10E0AE
:107EA000102F00270E291F29000F111F8ED06801E7
:107EB0006FC0863521F484E090D080E0DECF843638
:107EC00009F040C070D06FD0082F6DD080E0C81688
:107ED00080E7D80618F4F601B7BEE895C0E0D1E017
:107EE00062D089930C17E1F7F0E0CF16F0E7DF06D8
:107EF00018F0F601B7BEE89568D007B600FCFDCFD4
:107F0000A601A0E0B1E02C9130E011968C91119780
:107F100090E0982F8827822B932B1296FA010C0160
:107F200087BEE89511244E5F5F4FF1E0A038BF0790
:107F300051F7F601A7BEE89507B600FCFDCF97BE46
:107F4000E89526C08437B1F42ED02DD0F82E2BD052
:107F50003CD0F601EF2C8F010F5F1F4F84911BD097
:107F6000EA94F801C1F70894C11CD11CFA94CF0C13
:107F7000D11C0EC0853739F428D08EE10CD085E9AC
:107F80000AD08FE07ACF813511F488E018D01DD067
:107F900080E101D065CF982F8091C00085FFFCCF94
:107FA0009093C60008958091C00087FFFCCF809118
:107FB000C00084FD01C0A8958091C6000895E0E648
:107FC000F0E098E1908380830895EDDF803219F02E
:107FD00088E0F5DFFFCF84E1DECF1F93182FE3DFCA
:107FE0001150E9F7F2DF1F91089580E0E8DFEE27F6
:047FF000FF270994CA
:027FFE00040479
:00000001FF
