:100000000C9480000C94A8000C94A8000C94A800F8
:100010000C94A8000C94A8000C94A8000C94A800C0
:100020000C94A8000C94A8000C94A8000C94A800B0
:100030000C94A8000C94A8000C94A8000C94A800A0
:100040000C94D2020C94A8000C9442030C941C0350
:100050000C94A8000C94A8000C94A8000C94A80080
:100060000C94A8000C94A800036EDB363D9A999975
:10007000993DABAAAA2A3E000000803F072C7AA532
:10008000BA6CC590DA3B9365FC8BBC53F810FD3C11
:100090005692834DBD879D3AB63DCBC9BF5BBE73BB
:1000A000DA0FC93F05A84CCDB2D44EB93836A902F3
:1000B0000C50B9918688083CA6AAAA2ABE00000066
:1000C000803F00000000250028002B0000000000F9
:1000D000240027002A000404040404040404020287
:1000E00002020202030303030303010204081020B7
:1000F0004080010204081020010204081020790544
:1001000011241FBECFEFD8E0DEBFCDBF11E0A0E0CD
:10011000B1E0E2E5F2E102C005900D92AA33B10729
:10012000D9F721E0AAE3B1E001C01D92A83FB207D0
:10013000E1F710E0C0E8D0E004C02197FE010E9482
:100140002109CF37D107C9F70E9474030C942709FE
:100150000C940000AF92BF92CF92DF92EF92FF9289
:100160000F931F93CF93DF936C017B018B01040FDF
:10017000151FEB015E01AE18BF08C017D10759F07B
:100180006991D601ED91FC910190F081E02DC601BD
:100190000995892B79F7C501DF91CF911F910F91B7
:1001A000FF90EF90DF90CF90BF90AF900895FC014B
:1001B000538D448D252F30E0842F90E0821B930BCC
:1001C000541710F0CF96089501970895FC01918D72
:1001D000828D981761F0A28DAE0FBF2FB11D5D9675
:1001E0008C91928D9F5F9F73928F90E008958FEF17
:1001F0009FEF0895FC01918D828D981731F0828DCB
:10020000E80FF11D858D90E008958FEF9FEF089521
:10021000FC01918D228D892F90E0805C9F4F821B85
:1002200091098F73992708958BE591E00E94080149
:1002300021E0892B09F420E0822F089580E090E0EE
:10024000892B29F00E94140181110C94000008955B
:10025000FC01A48DA80FB92FB11DA35ABF4F2C913B
:10026000848D90E001968F739927848FA689B78932
:100270002C93A089B1898C91837080648C93938D29
:10028000848D981306C00288F389E02D80818F7DCC
:1002900080830895EF92FF920F931F93CF93DF9384
:1002A000EC0181E0888F9B8D8C8D98131AC0E889B2
:1002B000F989808185FF15C09FB7F894EE89FF8981
:1002C0006083E889F98980818370806480839FBF1F
:1002D00081E090E0DF91CF911F910F91FF90EF901F
:1002E0000895F62E0B8D10E00F5F1F4F0F7311272F
:1002F000E02E8C8D8E110CC00FB607FCFACFE8896A
:10030000F989808185FFF5CFCE010E942801F1CFC8
:10031000EB8DEC0FFD2FF11DE35AFF4FF0829FB7DD
:10032000F8940B8FEA89FB8980818062CFCFCF93CD
:10033000DF93EC01888D8823B9F0AA89BB89E8890D
:10034000F9898C9185FD03C0808186FD0DC00FB6B3
:1003500007FCF7CF8C9185FFF2CF808185FFEDCF31
:10036000CE010E942801E9CFDF91CF910895FC01D1
:1003700001900020E9F73197AF01481B590BBC01F0
:100380008BE591E00C94AA008F929F92AF92BF925E
:100390000F931F93CF93DF93CDB7DEB7A1970FB61F
:1003A000F894DEBF0FBECDBF19A2423008F44AE078
:1003B0008E010F5D1F4F842E912CB12CA12CA50115
:1003C00094010E94FF08E62FB901CA01EA30F4F453
:1003D000E05DD801EE938D01232B242B252B79F79B
:1003E00090E080E0109719F0CD010E94B701A1962E
:1003F0000FB6F894DEBF0FBECDBFDF91CF911F9136
:100400000F91BF90AF909F908F900895E95CE1CFDE
:100410004F925F926F927F928F929F92AF92BF9214
:10042000CF92DF92EF92FF926B017C01AC019B01B6
:100430000E94E5088823C1F082E191E00E94B701A3
:100440007C018EE191E00E94B7018E0D9F1DFF900F
:10045000EF90DF90CF90BF90AF909F908F907F9064
:100460006F905F904F90089546015701E894B7F858
:100470002FEF3FEF4FE75FE7C501B4010E94E508AA
:1004800081110DC02FEF3FEF4FE75FE7C501B401CA
:100490000E942E0618161CF486E191E0CFCF2FEFB4
:1004A0003FEF4FE75FE4C701B6010E942508181629
:1004B0001CF48AE191E0C2CF2FEF3FEF4FE75FECF2
:1004C000C701B6010E942E0687FDF3CF20E030E081
:1004D000A901C701B6010E942E06B12CA12C87FFED
:1004E0000AC06DE28BE591E00E944A015C01F7FAD7
:1004F000F094F7F8F0942AE037ED43EA5BE3C701A4
:10050000B6010E94A7052B013C010E94AA066B01BF
:100510007C010E94D9069B01AC01C301B2010E947B
:10052000A6052B013C014AE0C701B6010E94C401A7
:100530007C01EA0CFB1C6EE28BE591E00E944A0113
:10054000E80EF91E20E030E040E251E4C301B201C0
:100550000E942A082B013C010E94AA064B01B12CE3
:10056000A12C4AE0C501B4010E94C401E80EF91EA5
:10057000C501B4010E94D9069B01AC01C301B201BF
:100580000E94A60520E030E040E251E40E942A08E3
:100590000E94AA0690E080E04AE00E94C401E80EB2
:1005A000F91E4FCF1F920F920FB60F9211242F9367
:1005B0003F938F939F93AF93BF93809157019091F7
:1005C0005801A0915901B0915A013091560123E090
:1005D000230F2D3758F50196A11DB11D209356010B
:1005E0008093570190935801A0935901B0935A01F9
:1005F0008091520190915301A0915401B091550105
:100600000196A11DB11D8093520190935301A093B7
:100610005401B0935501BF91AF919F918F913F913C
:100620002F910F900FBE0F901F90189526E8230F63
:100630000296A11DB11DD2CF1F920F920FB60F923D
:1006400011242F933F934F935F936F937F938F93D7
:100650009F93AF93BF93EF93FF938BE591E00E943D
:100660002801FF91EF91BF91AF919F918F917F9161
:100670006F915F914F913F912F910F900FBE0F900F
:100680001F9018951F920F920FB60F9211242F935F
:100690008F939F93EF93FF93E0916B01F0916C0127
:1006A0008081E0917101F091720182FD1BC0908107
:1006B000809174018F5F8F7320917501821741F0D3
:1006C000E0917401F0E0E55AFE4F958F809374013C
:1006D000FF91EF919F918F912F910F900FBE0F90EF
:1006E0001F9018958081F4CFCF93DF93CDB7DEB7FD
:1006F0002C970FB6F894DEBF0FBECDBF789484B5AB
:10070000826084BD84B5816084BD85B5826085BD0D
:1007100085B5816085BD80916E00816080936E009B
:10072000109281008091810082608093810080918D
:10073000810081608093810080918000816080933E
:1007400080008091B10084608093B1008091B000FE
:1007500081608093B00080917A00846080937A00F9
:1007600080917A00826080937A0080917A00816023
:1007700080937A0080917A00806880937A0010924A
:10078000C100E8EFF0E02491E4EEF0E084918823EA
:10079000C9F090E0880F991FFC01E453FF4F659169
:1007A0007491FC01EE53FF4FA591B4919FB7F8945B
:1007B000FB0180812095822380838C91E22FE823A6
:1007C000EC939FBFE0916B01F0916C0182E080831C
:1007D000E0916701F09168011082E0916901F09168
:1007E0006A018FEC808310927301E0916F01F091A8
:1007F000700186E08083E0916D01F0916E0180814F
:1008000080618083E0916D01F0916E01808188604C
:100810008083E0916D01F0916E018081806880831A
:10082000E0916D01F0916E0180818F7D808310E4F5
:10083000412C512C320129EE35E649E159E4C3013E
:10084000B2010E942A0820E03CE742E958E40E94F5
:10085000380660934E0170934F018093500190933E
:10086000510110937C0080917A00806480937A001B
:1008700080917A0086FDFCCF6091780070917900BC
:10088000072E000C880B990B0E94DB062AE038E249
:1008900040EA5BE30E942A0820E030E040E250E4B6
:1008A0000E94A60520E030E040E250E40E943806B5
:1008B0006D837E838F83988780914E0190914F0145
:1008C000A0915001B091510189839A83AB83BC837D
:1008D000BC01CD010E9433064B015C0169817A8124
:1008E0008B819C810E94970869877A878B879C8778
:1008F0002DE232EB4DE75FE36091420170914301DD
:1009000080914401909145010E942A086B017C016D
:10091000A50194016D817E818F8198850E942A08AE
:100920002CEB34E743E15CE30E942A089B01AC0115
:10093000C701B6010E94A7056B017C01C09242016C
:10094000D0924301E0924401F09245012DE232EB56
:100950004DE75FE360913E0170913F01809140015E
:10096000909141010E942A084B015C0129853A853A
:100970004B855C856D817E818F8198850E942A08D8
:100980002CEB34E743E15CE30E942A089B01AC01B5
:10099000C501B4010E94A7054B015C0180923E0194
:1009A00090923F01A0924001B09241012DE232EBC2
:1009B0004DE75FE360913A0170913B0180913C010A
:1009C00090913D010E942A0869877A878B879C87CE
:1009D000A5019401C701B6010E942A082CEB34E757
:1009E00043E15CE30E942A089B01AC0169857A859A
:1009F0008B859C850E94A70560933A0170933B010B
:100A000080933C0190933D0120E030E040E051E4D0
:100A10000E942A080E94130620E030E040E05FE3D5
:100A20000E942A089B01AC0120934A0130934B019C
:100A300040934C0150934D0169817A818B819C8157
:100A40000E94A6050E9433066093460170934701F9
:100A5000809348019093490181E291E00E94B7019F
:100A60006D817E818F8198850E94080286E291E0E7
:100A70000E94B70160914601709147018091480141
:100A8000909149010E9408028EE291E00E94B70114
:100A900060914A0170914B0180914C0190914D0100
:100AA0000E94080280E291E00E94B7018EE191E08D
:100AB0000E94B70120E030E040E85FE3C301B201EB
:100AC0000E94A7052B013C0120E03CE742E958E4E5
:100AD0000E942E0687FDAFCEA0E0B0E0AB2B09F45C
:100AE000A7CE0E941401882309F4A2CE0E94000020
:100AF0009FCEEBE5F1E01382128288EE93E0A0E056
:100B0000B0E084839583A683B78384E091E09183EA
:100B1000808385EC90E09587848784EC90E09787CC
:100B2000868780EC90E0918B808B81EC90E0938BBA
:100B3000828B82EC90E0958B848B86EC90E0978B97
:100B4000868B118E128E138E148E08955058BB27EB
:100B5000AA270E94BE050C94D7070E949E0738F072
:100B60000E94A50720F039F49F3F19F426F40C9455
:100B700060070EF4E095E7FB0C945A07E92F0E94FA
:100B8000FC0758F3BA17620773078407950720F02C
:100B900079F4A6F50C941E080EF4E0950B2EBA2FEE
:100BA000A02D0B01B90190010C01CA01A001112473
:100BB000FF27591B99F0593F50F4503E68F11A161F
:100BC000F040A22F232F342F4427585FF3CF4695B0
:100BD00037952795A795F0405395C9F77EF41F16D2
:100BE000BA0B620B730B840BBAF09150A1F0FF0F9C
:100BF000BB1F661F771F881FC2F70EC0BA0F621F88
:100C0000731F841F48F4879577956795B795F79577
:100C10009E3F08F0B0CF9395880F08F09927EE0F0C
:100C20009795879508959F939F77EEE389379E0761
:100C300028F4E8E6F0E00E948A070CC00E9416073C
:100C40009058A2EA2AED3FE049EC5FE30E94BE051E
:100C50000E94D7070F9007FC905808950E9436070E
:100C600008F481E008950E94AE07E3950C94E8072C
:100C70000E944C060C94D7070E94A50758F00E94CA
:100C80009E0740F029F45F3F29F00C945A07511158
:100C90000C941F080C9460070E94FC0768F39923CA
:100CA000B1F3552391F3951B550BBB27AA27621768
:100CB0007307840738F09F5F5F4F220F331F441F75
:100CC000AA1FA9F335D00E2E3AF0E0E832D09150A9
:100CD0005040E695001CCAF72BD0FE2F29D0660F96
:100CE000771F881FBB1F261737074807AB07B0E8D9
:100CF00009F0BB0B802DBF01FF2793585F4F3AF0DF
:100D00009E3F510578F00C945A070C941F085F3FE2
:100D1000E4F3983ED4F3869577956795B795F79564
:100D20009F5FC9F7880F911D9695879597F908954C
:100D3000E1E0660F771F881FBB1F621773078407E8
:100D4000BA0720F0621B730B840BBA0BEE1F88F7F7
:100D5000E09508950E94040888F09F5798F0B92FF5
:100D60009927B751B0F0E1F0660F771F881F991FE0
:100D70001AF0BA95C9F714C0B13091F00E941E085C
:100D8000B1E008950C941E08672F782F8827B85F6C
:100D900039F0B93FCCF3869577956795B395D9F738
:100DA0003EF490958095709561957F4F8F4F9F4F42
:100DB0000895E89409C097FB3EF49095809570954E
:100DC00061957F4F8F4F9F4F9923A9F0F92F96E997
:100DD000BB279395F695879577956795B795F1110C
:100DE000F8CFFAF4BB0F11F460FF1BC06F5F7F4FA9
:100DF0008F4F9F4F16C0882311F096E911C07723BB
:100E000021F09EE8872F762F05C0662371F096E8C3
:100E1000862F70E060E02AF09A95660F771F881F92
:100E2000DAF7880F9695879597F90895DF93CF9312
:100E30001F930F938B01EC01ECE7F0E00E94630736
:100E40000E94D7079801AE018B01EC0160E070E0D1
:100E500080E89FE30E94A6050E94A5089801AE01C4
:100E60000F911F91CF91DF910C943D08990F0008CD
:100E7000550FAA0BE0E8FEEF16161706E807F9076C
:100E8000C0F012161306E407F50798F0621B730B07
:100E9000840B950B39F40A2661F0232B242B252B88
:100EA00021F408950A2609F4A140A6958FEF811D2B
:100EB000811D089597F99F6780E870E060E00895CC
:100EC0009FEF80EC0895DF93CF931F930F93FF92D2
:100ED000EF92DF927B018C01689406C0DA2EEF015D
:100EE0000E943D08FE01E894A59125913591459118
:100EF0005591A6F3EF010E94BE05FE019701A801DE
:100F0000DA9469F7DF90EF90FF900F911F91CF91E6
:100F1000DF9108959F938F937F936F93FF93EF9348
:100F20009B01AC010E942A08EF91FF910E94630788
:100F30002F913F914F915F910C942A0800240A94BD
:100F40001616170618060906089500240A941216A4
:100F500013061406050608950C9460070E94040801
:100F6000D8F3E894E0E0BB279F57F0F02AED3FE08C
:100F700049EC06C0EE0FBB0F661F771F881F28F0D5
:100F8000B23A62077307840728F0B25A620B730BF8
:100F9000840BE3959A9572F7803830F49A95BB0FDD
:100FA000661F771F881FD2F790480C94EC08092E13
:100FB0000394000C11F4882352F0BB0F40F4BF2BB4
:100FC00011F460FF04C06F5F7F4F8F4F9F4F0895F4
:100FD000EF93E0FF07C0A2EA2AED3FE049EC5FEBA8
:100FE0000E94BE050E94D7070F90039401FC905801
:100FF000E4EAF0E00C948A0757FD9058440F551F1F
:1010000059F05F3F71F04795880F97FB991F61F08A
:101010009F3F79F087950895121613061406551F01
:10102000F2CF4695F1DF08C0161617061806991F6D
:10103000F1CF86957105610508940895E894BB2762
:1010400066277727CB0197F908950E94360708F4A1
:101050008FEF08950E943D080C94D7070E949E07C9
:1010600038F00E94A50720F0952311F00C945A0740
:101070000C94600711240C941F080E94FC0770F365
:10108000959FC1F3950F50E0551F629FF001729F2D
:10109000BB27F00DB11D639FAA27F00DB11DAA1F3C
:1010A000649F6627B00DA11D661F829F2227B00D89
:1010B000A11D621F739FB00DA11D621F839FA00D14
:1010C000611D221F749F3327A00D611D231F849F64
:1010D000600D211D822F762F6A2F11249F575040BB
:1010E0009AF0F1F088234AF0EE0FFF1FBB1F661F36
:1010F000771F881F91505040A9F79E3F510580F0FF
:101100000C945A070C941F085F3FE4F3983ED4F305
:10111000869577956795B795F795E7959F5FC1F7A2
:10112000FE2B880F911D9695879597F908959F93AB
:101130000E94AE070F9007FCEE5F0C94E80719F4CD
:1011400016F40C9460070C94EA080E940408B8F3A3
:101150009923C9F3B6F39F57550B87FF0E94F808F0
:101160000024A0E640EA900180585695979528F40F
:10117000805C660F771F881F20F026173707480707
:1011800030F4621B730B840B202931294A2BA6955E
:1011900017940794202531254A2758F7660F771FA3
:1011A000881F20F026173707480730F4620B730BAF
:1011B000840B200D311D411DA09581F7B901842FAD
:1011C0009158880F9695879508950E943607880B49
:1011D000990B08959F3F31F0915020F487957795B2
:1011E0006795B795880F911D9695879597F90895FE
:1011F00091505040660F771F881FD2F70895A1E2E3
:101200001A2EAA1BBB1BFD010DC0AA1FBB1FEE1F80
:10121000FF1FA217B307E407F50720F0A21BB30BCB
:10122000E40BF50B661F771F881F991F1A9469F747
:1012300060957095809590959B01AC01BD01CF01A3
:101240000895EE0FFF1F0590F491E02D0994F89496
:02125000FFCFCE
:10125200000000004A01AA00D70097010801E60039
:10126200FA006E616E00696E66006F7666000D0AA6
:101272000052783A20004C5F6F73633A2000506846
:0A12820061736520416E676C650022
:00000001FF
