:100000000C94F2000C9423010C9423010C94230112
:100010000C9423010C9423010C9423010C942301D0
:100020000C9423010C9423010C9423010C942301C0
:100030000C9423010C9423010C9423010C942301B0
:100040000C9423010C9423010C9423010C942301A0
:100050000C9423010C9423010C9423010C94AB0306
:100060000C9423010C941F040C94F5030C942301AD
:100070000C9423010C9423010C9423010C94230170
:100080000C9423010C9423010C9423010C94230160
:100090000C9423010C9423010C9423010C94230150
:1000A0000C9423010C9423010C9423010C94230140
:1000B0000C9423010C9423010C9423010C94230130
:1000C0000C9423010C9423010C9423010C94230120
:1000D0000C9423010C9423010C9423010C94230110
:1000E0000C94230105A84CCDB2D44EB93836A902E0
:1000F0000C50B9918688083CA6AAAA2ABE00000026
:10010000803F0C94A8010C9477010C94FD050C948D
:100110004A010C942D020C94E0010C9486010C947D
:100120009A0100002200250028002B002E0031003B
:10013000340002010000050108010B01000021004C
:10014000240027002A002D003000330001010000A8
:10015000040107010A010505050507050808080847
:10016000020202020A0A080804040404010101014F
:10017000010101010303030303030303040707074A
:100180000C0C0C0C0C0C0C0C0202020206060606EF
:10019000060606060B0B0B0B0B0B0B0B01021020BC
:1001A00020080810204010204080020102010804AD
:1001B0000201010204081020408080402010080441
:1001C000020180040201804020100804020108049A
:1001D00002010102040810204080010204081020DE
:1001E0004080FD0511241FBECFEFD1E2DEBFCDBFA1
:1001F00000E00CBF12E0A0E0B2E0E4E4F2E100E0D5
:100200000BBF02C007900D92AC33B107D9F722E0C3
:10021000ACE3B2E001C01D92AA3EB207E1F710E0E4
:10022000C2EFD0E000E006C021970109802FFE0157
:100230000E941809C13FD10780E00807A9F70E9472
:1002400055040C9420090C9400003FB7F894809159
:10025000490290914A02A0914B02B0914C0226B5FE
:10026000A89B05C02F3F19F00196A11DB11D3FBFEE
:10027000BA2FA92F982F8827BC01CD01620F711DBD
:10028000811D911D42E0660F771F881F991F4A95B7
:10029000D1F70895AF92BF92CF92DF92EF92FF9283
:1002A0000F931F93CF93DF936C017B018B01040F9E
:1002B000151FEB015E01AE18BF08C017D10759F03A
:1002C0006991D601ED91FC910190F081E02DC6017C
:1002D0001995892B79F7C501DF91CF911F910F9166
:1002E000FF90EF90DF90CF90BF90AF900895FC010A
:1002F000538D448D252F30E0842F90E0821B930B8B
:10030000541710F0CF96089501970895FC01918D30
:10031000828D981761F0A28DAE0FBF2FB11D5D9633
:100320008C91928D9F5F9F73928F90E008958FEFD5
:100330009FEF0895FC01918D828D981731F0828D89
:10034000E80FF11D858D90E008958FEF9FEF0895E0
:10035000FC01918D228D892F90E0805C9F4F821B44
:1003600091098F73992708958DE492E00E94A80166
:1003700021E0892B09F420E0822F0895FC01A48D4F
:10038000A80FB92FB11DA35ABF4F2C91848D90E0B7
:1003900001968F739927848FA689B7892C93A0899A
:1003A000B1898C91837080648C93938D848D981324
:1003B00006C00288F389E02D80818F7D80830895B7
:1003C000EF92FF920F931F93CF93DF93EC0181E0A5
:1003D000888F9B8D8C8D98131AC0E889F98980814C
:1003E00085FF15C09FB7F894EE89FF896083E8897F
:1003F000F98980818370806480839FBF81E090E071
:10040000DF91CF911F910F91FF90EF900895F62EFD
:100410000B8D10E00F5F1F4F0F731127E02E8C8D97
:100420008E110CC00FB607FCFACFE889F9898081DC
:1004300085FFF5CFCE010E94BE01F1CFEB8DEC0F11
:10044000FD2FF11DE35AFF4FF0829FB7F8940B8FF9
:10045000EA89FB8980818062CFCFCF93DF93EC0163
:10046000888D8823B9F0AA89BB89E889F9898C919C
:1004700085FD03C0808186FD0DC00FB607FCF7CF58
:100480008C9185FFF2CF808185FFEDCFCE010E9458
:10049000BE01E9CFDF91CF91089580E090E0892BF4
:1004A00029F00E94B40181110E94000080E090E0D8
:1004B000892B49F080E090E0892B29F00E94000010
:1004C00081110E94000080E090E0892B49F080E0DB
:1004D00090E0892B29F00E94000081110E94000009
:1004E00080E090E0892B49F080E090E0892B29F0B2
:1004F0000E94000081110C9400000895FC010190FD
:100500000020E9F73197AF01481B590BBC018DE47E
:1005100092E00C944A018F929F92AF92BF920F93F8
:100520001F93CF93DF93CDB7DEB7A1970FB6F894A3
:10053000DEBF0FBECDBF19A2423008F44AE08E01E3
:100540000F5D1F4F842E912CB12CA12CA50194017D
:100550000E94F608E62FB901CA01EA30F4F4E05D22
:10056000D801EE938D01232B242B252B79F790E0D6
:1005700080E0109719F0CD010E947E02A1960FB67F
:10058000F894DEBF0FBECDBFDF91CF911F910F91C9
:10059000BF90AF909F908F900895E95CE1CF4F920C
:1005A0005F926F927F928F929F92AF92BF92CF9203
:1005B000DF92EF92FF920F931F93CF936B017C0119
:1005C000742EAC019B010E946908882399F082E196
:1005D00092E0CF911F910F91FF90EF90DF90CF901D
:1005E000BF90AF909F908F907F906F905F904F9053
:1005F0000C947E0246015701E894B7F82FEF3FEFC5
:100600004FE75FE7C501B4010E94690881110DC081
:100610002FEF3FEF4FE75FE7C501B4010E94970658
:1006200018161CF486E192E0D4CF2FEF3FEF4FE78E
:100630005FE4C701B6010E94EF0718161CF48AE1B7
:1006400092E0C7CF2FEF3FEF4FE75FECC701B60156
:100650000E94970687FDF3CF20E030E0A901C70193
:10066000B6010E94970610E000E087FF0AC06DE225
:100670008DE492E00E94E0018C01F7FAF094F7F823
:10068000F094C0E060E070E080E09FE37C1641F011
:1006900020E030E040E251E40E949C06CF5FF6CFBC
:1006A000A70196010E942B062B013C010E940E0718
:1006B0004B015C014AE00E948B027C01E00EF11EBE
:1006C000CC23C1F1C501B4010E943D079B01AC01DF
:1006D000C301B2010E942A064B015C016EE28DE467
:1006E00092E00E94E001E80EF91EC15018F120E0EE
:1006F00030E040E251E4C501B4010E94F4072B014F
:100700003C010E940E074B01B12CA12C4AE0C5010F
:10071000B4010E948B02E80EF91EC501B4010E94CB
:100720003D079B01AC01C301B2010E942A064B01A7
:100730005C01DBCFC701CF911F910F91FF90EF902C
:10074000DF90CF90BF90AF909F908F907F906F90F1
:100750005F904F9008951F920F920FB60F92112441
:100760002F933F938F939F93AF93BF9380914502B5
:1007700090914602A0914702B09148023091440204
:1007800023E0230F2D3758F50196A11DB11D2093AD
:1007900044028093450290934602A0934702B0938F
:1007A00048028091490290914A02A0914B02B09177
:1007B0004C020196A11DB11D8093490290934A02FB
:1007C000A0934B02B0934C02BF91AF919F918F9138
:1007D0003F912F910F900FBE0F901F90189526E814
:1007E000230F0296A11DB11DD2CF1F920F920FB6FB
:1007F0000F9211240BB60F922F933F934F935F9359
:100800006F937F938F939F93AF93BF93EF93FF93D8
:100810008DE492E00E94BE01FF91EF91BF91AF91F4
:100820009F918F917F916F915F914F913F912F9108
:100830000F900BBE0F900FBE0F901F9018951F9238
:100840000F920FB60F9211240BB60F922F938F9326
:100850009F93EF93FF93E0915D02F0915E028081A0
:10086000E0916302F091640282FD1DC0908180914D
:1008700066028F5F8F7320916702821741F0E091CB
:100880006602F0E0E35BFD4F958F80936602FF9177
:10089000EF919F918F912F910F900BBE0F900FBEF4
:1008A0000F901F9018958081F2CF789484B5826064
:1008B00084BD84B5816084BD85B5826085BD85B504
:1008C000816085BD80916E00816080936E00109282
:1008D00081008091810082608093810080918100FD
:1008E000816080938100809180008160809380008E
:1008F0008091B10084608093B1008091B0008160EC
:100900008093B000809191008260809391008091EB
:10091000910081608093910080919000816080932C
:1009200090008091A10082608093A1008091A1003D
:1009300081608093A1008091A00081608093A000DD
:100940008091210182608093210180912101816049
:10095000809321018091200181608093200180910A
:100960007A00846080937A0080917A00826080931C
:100970007A0080917A00816080937A0080917A0079
:10098000806880937A001092C100E2EDF1E024913A
:10099000ECE8F1E084918823C1F090E0880F991F82
:1009A000FC01E45CFE4FC591D491FC01EE5DFE4F6D
:1009B000A591B4919FB7F8948881E22FE0958E239A
:1009C00088838C91E823EC939FBF80917A008B7F82
:1009D00080937A0080917A00826080937A0080917F
:1009E0007A00816080937A00E0915D02F0915E026E
:1009F00082E08083E0915902F0915A021082E091E6
:100A00005B02F0915C028FEC808310926502E091B2
:100A10006102F091620286E08083E0915F02F091D2
:100A20006002808180618083E0915F02F0916002CA
:100A3000808188608083E0915F02F0916002808114
:100A400080688083E0915F02F091600280818F7DF9
:100A5000808310E4D0E0C0E080917B00877F8093AA
:100A60007B0010937C0080917A00806480937A00F0
:100A700080917A0086FDFCCF6091780070917900BA
:100A8000072E000C880B990B0E943F0720E030E0F6
:100A900044EB53E40E94F40720E030EC4FE754E4C9
:100AA0000E949C064B015C018092400290924102A0
:100AB000A0924202B0924302C0903C02D0903D020C
:100AC000E0903E02F0903F02BE010D2E000C880B1C
:100AD000990B0E943F072CE739E544EC55E40E944E
:100AE000F40720E030E84BE355E40E949C06A701A0
:100AF00096010E942B060E9461089B01AC01C50172
:100B0000B4010E94F40720E030E040E05FE30E947F
:100B1000F40720EE3EE245E652E40E94F407A70106
:100B200096010E942B066B017C0120E030E044E33B
:100B300053E40E94EF0718160CF04CC020E030E0A0
:100B400044EB53E4C701B6010E942A066B017C0105
:100B5000C0923C02D0923D02E0923E02F0923F02EF
:100B60008EE192E00E947E0260914002709141020B
:100B7000809142029091430242E00E94CF0287E2BC
:100B800092E00E947E0260913C0270913D02809151
:100B90003E0290913F0242E00E94CF0288E392E041
:100BA0000E947E020E9425016B017C010E942501AA
:100BB0006C197D098E099F09683E73408105910576
:100BC000A8F32196C83B2BE0D20709F045CF0E943D
:100BD0004D0240CF20E030E044E353ECC701B601C2
:100BE0000E94970687FFB4CF20E030E044EB53E447
:100BF000C701B6010E942B06A9CFEDE4F2E01382F3
:100C0000128288EE93E0A0E0B0E084839583A6830F
:100C1000B78384E092E09183808385EC90E09587B0
:100C2000848784EC90E09787868780EC90E0918BB6
:100C3000808B81EC90E0938B828B82EC90E0958BA3
:100C4000848B86EC90E0978B868B118E128E138EA0
:100C5000148E08955058BB27AA270E9442060C9470
:100C6000B5070E94A70738F00E94AE0720F039F4BC
:100C70009F3F19F426F40C94A4070EF4E095E7FBCB
:100C80000C949E07E92F0E94C60758F3BA17620713
:100C900073078407950720F079F4A6F50C94E8070C
:100CA0000EF4E0950B2EBA2FA02D0B01B901900187
:100CB0000C01CA01A0011124FF27591B99F0593FCB
:100CC00050F4503E68F11A16F040A22F232F342F13
:100CD0004427585FF3CF469537952795A795F04061
:100CE0005395C9F77EF41F16BA0B620B730B840B76
:100CF000BAF09150A1F0FF0FBB1F661F771F881F2E
:100D0000C2F70EC0BA0F621F731F841F48F4879585
:100D100077956795B795F7959E3F08F0B0CF939577
:100D2000880F08F09927EE0F9795879508950E94F0
:100D30007A0708F481E008950E94B0060C94B50784
:100D40000E94AE0758F00E94A70740F029F45F3FC9
:100D500029F00C949E0751110C94E9070C94A407F8
:100D60000E94C60768F39923B1F3552391F3951BAD
:100D7000550BBB27AA2762177307840738F09F5FBC
:100D80005F4F220F331F441FAA1FA9F335D00E2E29
:100D90003AF0E0E832D091505040E695001CCAF796
:100DA0002BD0FE2F29D0660F771F881FBB1F261759
:100DB00037074807AB07B0E809F0BB0B802DBF0130
:100DC000FF2793585F4F3AF09E3F510578F00C94FF
:100DD0009E070C94E9075F3FE4F3983ED4F38695B1
:100DE00077956795B795F7959F5FC9F7880F911D20
:100DF0009695879597F90895E1E0660F771F881F0C
:100E0000BB1F621773078407BA0720F0621B730BBE
:100E1000840BBA0BEE1F88F7E09508950E94CE0769
:100E200088F09F5798F0B92F9927B751B0F0E1F0AB
:100E3000660F771F881F991F1AF0BA95C9F714C05B
:100E4000B13091F00E94E807B1E008950C94E807F2
:100E5000672F782F8827B85F39F0B93FCCF3869594
:100E600077956795B395D9F73EF4909580957095F1
:100E700061957F4F8F4F9F4F0895E89409C097FB6E
:100E80003EF490958095709561957F4F8F4F9F4F61
:100E90009923A9F0F92F96E9BB279395F6958795A5
:100EA00077956795B795F111F8CFFAF4BB0F11F468
:100EB00060FF1BC06F5F7F4F8F4F9F4F16C088230F
:100EC00011F096E911C0772321F09EE8872F762F45
:100ED00005C0662371F096E8862F70E060E02AF086
:100EE0009A95660F771F881FDAF7880F9695879572
:100EF00097F90895990F0008550FAA0BE0E8FEEF47
:100F000016161706E807F907C0F012161306E407CD
:100F1000F50798F0621B730B840B950B39F40A26C6
:100F200061F0232B242B252B21F408950A2609F4A4
:100F3000A140A6958FEF811D811D089597F99F67A8
:100F400080E870E060E008959FEF80EC0895002451
:100F50000A941616170618060906089500240A941E
:100F600012161306140605060895092E0394000CA4
:100F700011F4882352F0BB0F40F4BF2B11F460FF33
:100F800004C06F5F7F4F8F4F9F4F089557FD90585C
:100F9000440F551F59F05F3F71F04795880F97FB3D
:100FA000991F61F09F3F79F08795089512161306F7
:100FB0001406551FF2CF4695F1DF08C01616170626
:100FC0001806991FF1CF869571056105089408955B
:100FD000E894BB2766277727CB0197F908950E94ED
:100FE0007A0708F48FEF08950E9407080C94B5075C
:100FF0000E94A70738F00E94AE0720F0952311F059
:101000000C949E070C94A40711240C94E9070E94E9
:10101000C60770F3959FC1F3950F50E0551F629F6F
:10102000F001729FBB27F00DB11D639FAA27F00D41
:10103000B11DAA1F649F6627B00DA11D661F829F68
:101040002227B00DA11D621F739FB00DA11D621F4D
:10105000839FA00D611D221F749F3327A00D611D6A
:10106000231F849F600D211D822F762F6A2F11244C
:101070009F5750409AF0F1F088234AF0EE0FFF1F7F
:10108000BB1F661F771F881F91505040A9F79E3FD6
:10109000510580F00C949E070C94E9075F3FE4F340
:1010A000983ED4F3869577956795B795F795E7952C
:1010B0009F5FC1F7FE2B880F911D9695879597F935
:1010C00008959F930E9470080F9007FCEE5F0C94A8
:1010D00099080E947A07880B990B08950C94A4072D
:1010E0000E94CE07D8F3E894E0E0BB279F57F0F0CA
:1010F0002AED3FE049EC06C0EE0FBB0F661F771FDD
:10110000881F28F0B23A62077307840728F0B25AA2
:10111000620B730B840BE3959A9572F7803830F469
:101120009A95BB0F661F771F881FD2F790480C94C3
:10113000AF08EF93E0FF07C0A2EA2AED3FE049ECD9
:101140005FEB0E9442060E94B5070F90039401FCDA
:101150009058E4EEF0E00C94BB089F3F31F09150C2
:1011600020F4879577956795B795880F911D96958B
:10117000879597F908959F938F937F936F93FF932C
:10118000EF939B01AC010E94F407EF91FF910E9445
:10119000CF082F913F914F915F910C94F407DF930B
:1011A000CF931F930F93FF92EF92DF927B018C01FD
:1011B000689406C0DA2EEF010E940708FE01E89449
:1011C000A5912591359145915591A6F3EF010E9486
:1011D0004206FE019701A801DA9469F7DF90EF90CB
:1011E000FF900F911F91CF91DF910895A1E21A2EE8
:1011F000AA1BBB1BFD010DC0AA1FBB1FEE1FFF1FBB
:10120000A217B307E407F50720F0A21BB30BE40B0A
:10121000F50B661F771F881F991F1A9469F7609551
:101220007095809590959B01AC01BD01CF0108950B
:10123000EE0FFF1F881F8BBF0790F691E02D1994CA
:04124000F894FFCF50
:1012440000000000E0014A0177012D02A801860197
:101254009A016E616E00696E66006F76660053696E
:10126400676E616C3A2000207C20506861736520B1
:0C1274004572726F723A20000D0A0000F3
:00000001FF
