:100000000C9479000C94A1000C94A1000C94A10014
:100010000C94A1000C94A1000C94A1000C94A100DC
:100020000C94A1000C94A1000C94A1000C94A100CC
:100030000C94A1000C94A1000C94A1000C94A100BC
:100040000C94CD010C94A1000C943D020C94170269
:100050000C94A1000C94A1000C94A1000C94A1009C
:100060000C94A1000C94A100084AD73B3BCE016E32
:1000700084BCBFFDC12F3D6C74319ABD56833DDAFF
:100080003D00C77F11BED9E4BB4C3E916BAAAABE0E
:10009000000000803F05A84CCDB2D44EB93836A937
:1000A000020C50B9918688083CA6AAAA2ABE000074
:1000B00000803F0000000000250028002B00000009
:1000C0000000240027002A0004040404040404049B
:1000D00002020202020203030303030301020408F3
:1000E00010204080010204081020010204081020A2
:1000F000760411241FBECFEFD8E0DEBFCDBF11E0E4
:10010000A0E0B1E0ECE8FFE002C005900D92AA3358
:10011000B107D9F721E0AAE3B1E001C01D92AC3EDE
:10012000B207E1F710E0C9E7D0E004C02197FE0173
:100130000E94BE07C837D107C9F70E946F020C940E
:10014000C4070C940000AF92BF92CF92DF92EF925F
:10015000FF920F931F93CF93DF936C017B018B0171
:10016000040F151FEB015E01AE18BF08C017D107C1
:1001700059F06991D601ED91FC910190F081E02D4B
:10018000C6010995892B79F7C501DF91CF911F91A0
:100190000F91FF90EF90DF90CF90BF90AF900895B8
:1001A000FC01538D448D252F30E0842F90E0821B7D
:1001B000930B541710F0CF96089501970895FC0102
:1001C000918D828D981761F0A28DAE0FBF2FB11D5A
:1001D0005D968C91928D9F5F9F73928F90E00895B2
:1001E0008FEF9FEF0895FC01918D828D981731F06C
:1001F000828DE80FF11D858D90E008958FEF9FEFC0
:100200000895FC01918D228D892F90E0805C9F4F95
:10021000821B91098F73992708958FE491E00E94C2
:10022000010121E0892B09F420E0822F089580E06C
:1002300090E0892B29F00E940D0181110C9400009F
:100240000895FC01A48DA80FB92FB11DA35ABF4F6B
:100250002C91848D90E001968F739927848FA689C5
:10026000B7892C93A089B1898C91837080648C9319
:10027000938D848D981306C00288F389E02D8081C8
:100280008F7D80830895EF92FF920F931F93CF93FA
:10029000DF93EC0181E0888F9B8D8C8D98131AC0C1
:1002A000E889F989808185FF15C09FB7F894EE89A8
:1002B000FF896083E889F989808183708064808305
:1002C0009FBF81E090E0DF91CF911F910F91FF9050
:1002D000EF900895F62E0B8D10E00F5F1F4F0F73F8
:1002E0001127E02E8C8D8E110CC00FB607FCFACFB3
:1002F000E889F989808185FFF5CFCE010E9421012F
:10030000F1CFEB8DEC0FFD2FF11DE35AFF4FF08283
:100310009FB7F8940B8FEA89FB8980818062CFCFE9
:10032000CF93DF93EC01888D8823B9F0AA89BB892C
:10033000E889F9898C9185FD03C0808186FD0DC017
:100340000FB607FCF7CF8C9185FFF2CF808185FF38
:10035000EDCFCE010E942101E9CFDF91CF91089529
:10036000CF93DF93FC0101900020E9F73197AF01B3
:10037000481B590BBC018FE491E00E94A300EC01E3
:1003800042E050E066E171E08FE491E00E94A3005A
:100390008C0F9D1FDF91CF9108951F920F920FB682
:1003A0000F9211242F933F938F939F93AF93BF93FB
:1003B00080914B0190914C01A0914D01B0914E0163
:1003C00030914A0123E0230F2D3758F50196A11DE6
:1003D000B11D20934A0180934B0190934C01A0934F
:1003E0004D01B0934E018091460190914701A0913B
:1003F0004801B09149010196A11DB11D80934601AC
:1004000090934701A0934801B0934901BF91AF91E8
:100410009F918F913F912F910F900FBE0F901F9042
:10042000189526E8230F0296A11DB11DD2CF1F9269
:100430000F920FB60F9211242F933F934F935F9318
:100440006F937F938F939F93AF93BF93EF93FF939C
:100450008FE491E00E942101FF91EF91BF91AF9154
:100460009F918F917F916F915F914F913F912F91CC
:100470000F900FBE0F901F9018951F920F920FB6FE
:100480000F9211242F938F939F93EF93FF93E091FB
:100490005F01F09160018081E0916501F09166015A
:1004A00082FD1BC09081809168018F5F8F732091C6
:1004B0006901821741F0E0916801F0E0E15BFE4FD5
:1004C000958F80936801FF91EF919F918F912F916C
:1004D0000F900FBE0F901F9018958081F4CFCF938F
:1004E000DF93CDB7DEB72A970FB6F894DEBF0FBE05
:1004F000CDBF789484B5826084BD84B5816084BDAD
:1005000085B5826085BD85B5816085BD80916E00B1
:10051000816080936E0010928100809181008260E2
:10052000809381008091810081608093810080911F
:1005300080008160809380008091B100846080930E
:10054000B1008091B00081608093B00080917A000A
:10055000846080937A0080917A00826080937A0030
:1005600080917A00816080937A0080917A0080681F
:1005700080937A001092C100EAEEF0E02491E6ED5B
:10058000F0E084918823C9F090E0880F991FFC0166
:10059000E254FF4F65917491FC01EC54FF4FA5911B
:1005A000B4919FB7F894FB018081209582238083CA
:1005B0008C91E22FE823EC939FBF80917A008B7F90
:1005C00080937A0080917A00826080937A00809193
:1005D0007A00816080937A00E0915F01F091600180
:1005E00082E08083E0915B01F0915C011082E091F8
:1005F0005D01F0915E018FEC808310926701E091C4
:100600006301F091640186E08083E0916101F091E3
:100610006201808180618083E0916101F0916201DB
:10062000808188608083E0916101F0916201808126
:1006300080688083E0916101F091620180818F7D0B
:1006400080831A86198620E4322E03E210E030926D
:100650007C0080917A00806480937A0080917A0097
:1006600086FDFCCF6091780070917900072E000C18
:10067000880B990B0E9400064B015C012091000140
:1006800030910101409102015091030129833A8385
:100690004B835C8349855A85BA01550F880B990BAA
:1006A0000E9400066B017C012BED3FE049EC50E419
:1006B00069817A818B819C810E9423079B01AC0117
:1006C000C701B6010E94230720E034E244E759E461
:1006D0000E948C056B017C010E9487052B013C0167
:1006E000C701B6010E9490076D837E838F83988730
:1006F00026E636E646E65FE36091420170914301EB
:1007000080914401909145010E9423076B017C0177
:10071000A3019201C501B4010E9423072DEC3CEC1A
:100720004CEC5DE30E9423079B01AC01C701B601BD
:100730000E94A4046B017C0126E636E646E65FE3F0
:1007400060913E0170913F01809140019091410183
:100750000E9423072B013C012D813E814F8158854A
:10076000C501B4010E9423072DEC3CEC4CEC5DE389
:100770000E9423079B01AC01C301B2010E94A404A3
:100780004B015C01C0924201D0924301E0924401CE
:10079000F092450180923E0190923F01A09240016B
:1007A000B0924101A70196010E9423052CEB34E78A
:1007B00043E15CE30E94230720913A0130913B0121
:1007C00040913C0150913D010E94A4049B01AC0169
:1007D00020933A0130933B0140933C0150933D01FB
:1007E00069817A818B819C810E94A4042B013C0148
:1007F00020E03CE541EC57E40E94820587FD38C0CB
:1008000020E034E445EC57E4C301B2010E9416072E
:1008100018163CF4412C94E4592E95EC692E97E47B
:10082000792E409200015092010160920201709273
:10083000030120E030E0A901C701B6010E941607BC
:1008400087FD1EC020E030E0A901C501B4010E946F
:1008500016071816ACF489E191E00E94B001C801B6
:100860000197F1F789859A8501969A878987EFCE56
:10087000412C8CE5582E81EC682E87E4782ED1CF60
:1008800020E030E0A901C701B6010E941607181642
:1008900064F420E030E0A901C501B4010E948205A2
:1008A00087FF03C081E291E0D8CF20E030E0A901CA
:1008B000C701B6010E94820587FFD1CF20E030E05A
:1008C000A901C501B4010E94160718161CF489E29B
:1008D00091E0C3CF20E030E0A901C501B4010E943E
:1008E000820587FFBCCF81E391E0B7CFEFE4F1E071
:1008F0001382128288EE93E0A0E0B0E084839583B7
:10090000A683B78388E091E09183808385EC90E0B3
:100910009587848784EC90E09787868780EC90E0C9
:10092000918B808B81EC90E0938B828B82EC90E0BA
:10093000958B848B86EC90E0978B868B118E128E34
:10094000138E148E08955058BB27AA270E94BB040B
:100950000C94C8060E948F0638F00E94960620F07C
:1009600039F49F3F19F426F40C9465060EF4E095D3
:10097000E7FB0C945F06E92F0E94ED0658F3BA17C7
:10098000620773078407950720F079F4A6F50C94A5
:100990000F070EF4E0950B2EBA2FA02D0B01B90115
:1009A00090010C01CA01A0011124FF27591B99F0E5
:1009B000593F50F4503E68F11A16F040A22F232FF1
:1009C000342F4427585FF3CF469537952795A79541
:1009D000F0405395C9F77EF41F16BA0B620B730BE8
:1009E000840BBAF09150A1F0FF0FBB1F661F771F59
:1009F000881FC2F70EC0BA0F621F731F841F48F40E
:100A0000879577956795B795F7959E3F08F0B0CF96
:100A10009395880F08F09927EE0F9795879508957D
:100A20000E948F0660F080E891E009F49EEF0E943A
:100A3000960628F040E851E071F45EEF0CC00C948B
:100A400065060C940F07E92FE0780E94ED0640F34D
:100A5000092E052AB1F3261737074807590738F03A
:100A60000E2E07F8E02569F0E025E0640AC0EF6388
:100A700007F8009407FADB01B9019D01DC01CA0106
:100A8000AD01EF930E94A3050E94C8060E94530582
:100A90005F91552339F02BED3FE049E450FD49ECDF
:100AA0000C94A4040895DF93DD27B92FBF7740E8A5
:100AB0005FE31616170648075B0718F4D92F0E9444
:100AC0001B079F938F937F936F930E949807E8E68D
:100AD000F0E00E9468060E94C8062F913F914F9156
:100AE0005F910E943607DD2351F09058A2EA2AED6B
:100AF0003FE049EC5FE3D0785D270E94BB04DF91C3
:100B00000C94C8060E943B0608F481E008950E94F8
:100B10009F06E3950C94D9060E94A0050C94C80684
:100B20000E94960658F00E948F0640F029F45F3F1D
:100B300029F00C945F0651110C9410070C94650673
:100B40000E94ED0668F39923B1F3552391F3951BA9
:100B5000550BBB27AA2762177307840738F09F5FDE
:100B60005F4F220F331F441FAA1FA9F335D00E2E4B
:100B70003AF0E0E832D091505040E695001CCAF7B8
:100B80002BD0FE2F29D0660F771F881FBB1F26177B
:100B900037074807AB07B0E809F0BB0B802DBF0152
:100BA000FF2793585F4F3AF09E3F510578F00C9421
:100BB0005F060C9410075F3FE4F3983ED4F38695EC
:100BC00077956795B795F7959F5FC9F7880F911D42
:100BD0009695879597F90895E1E0660F771F881F2E
:100BE000BB1F621773078407BA0720F0621B730BE1
:100BF000840BBA0BEE1F88F7E0950895E89409C0BE
:100C000097FB3EF490958095709561957F4F8F4F3F
:100C10009F4F9923A9F0F92F96E9BB279395F69555
:100C2000879577956795B795F111F8CFFAF4BB0FD3
:100C300011F460FF1BC06F5F7F4F8F4F9F4F16C037
:100C4000882311F096E911C0772321F09EE8872FC1
:100C5000762F05C0662371F096E8862F70E060E07D
:100C60002AF09A95660F771F881FDAF7880F9695F6
:100C7000879597F90895990F0008550FAA0BE0E89A
:100C8000FEEF16161706E807F907C0F0121613064E
:100C9000E407F50798F0621B730B840B950B39F48E
:100CA0000A2661F0232B242B252B21F408950A26F4
:100CB00009F4A140A6958FEF811D811D089597F934
:100CC0009F6780E870E060E008959FEF80EC0895F2
:100CD000DF93CF931F930F93FF92EF92DF927B01ED
:100CE0008C01689406C0DA2EEF010E943607FE01DF
:100CF000E894A5912591359145915591A6F3EF0181
:100D00000E94BB04FE019701A801DA9469F7DF9005
:100D1000EF90FF900F911F91CF91DF9108950024E4
:100D20000A941616170618060906089500240A9450
:100D3000121613061406050608950C9465060E9403
:100D4000F506D8F3E894E0E0BB279F57F0F02AEDD2
:100D50003FE049EC06C0EE0FBB0F661F771F881FF0
:100D600028F0B23A62077307840728F0B25A620B80
:100D7000730B840BE3959A9572F7803830F49A954B
:100D8000BB0F661F771F881FD2F790480C949E07F1
:100D9000092E0394000C11F4882352F0BB0F40F489
:100DA000BF2B11F460FF04C06F5F7F4F8F4F9F4FC9
:100DB0000895EF93E0FF07C0A2EA2AED3FE049EC77
:100DC0005FEB0E94BB040E94C8060F90039401FCD5
:100DD0009058E5E9F0E00C94AA0757FD9058440FAD
:100DE000551F59F05F3F71F04795880F97FB991F8A
:100DF00061F09F3F79F08795089512161306140647
:100E0000551FF2CF4695F1DF08C0161617061806D3
:100E1000991FF1CF86957105610508940895E894AE
:100E2000BB2766277727CB0197F908950E943B06D9
:100E300008F48FEF08959B01AC0160E070E080E85A
:100E40009FE30C948C050E9436070C94C8060E9400
:100E50008F0638F00E94960620F0952311F00C942E
:100E60005F060C94650611240C9410070E94ED0691
:100E700070F3959FC1F3950F50E0551F629FF001ED
:100E8000729FBB27F00DB11D639FAA27F00DB11D06
:100E9000AA1F649F6627B00DA11D661F829F22278F
:100EA000B00DA11D621F739FB00DA11D621F839F16
:100EB000A00D611D221F749F3327A00D611D231FEC
:100EC000849F600D211D822F762F6A2F11249F573A
:100ED00050409AF0F1F088234AF0EE0FFF1FBB1F3D
:100EE000661F771F881F91505040A9F79E3F5105FC
:100EF00080F00C945F060C9410075F3FE4F3983E7B
:100F0000D4F3869577956795B795F795E7959F5FA5
:100F1000C1F7FE2B880F911D9695879597F9089537
:100F20009F930E949F060F9007FCEE5F0C94D906DA
:100F30009B01AC010C9423079F3F31F0915020F4AA
:100F4000879577956795B795880F911D96958795A5
:100F500097F908959F938F937F936F93FF93EF93E8
:100F60009B01AC010E942307EF91FF910E9468064C
:100F70002F913F914F915F910C942307EE0FFF1F2C
:0C0F80000590F491E02D0994F894FFCF47
:100F8C000050C347000000004301A300D0009001B3
:100F9C000101DF00F3000D0A004269743A2031317F
:100FAC00004269743A203130004269743A20303181
:0A0FBC00004269743A203030000052
:00000001FF
