:100000000C9409010C943A010C943A010C943A01B5
:100010000C943A010C943A010C943A010C943A0174
:100020000C943A010C943A010C943A010C943A0164
:100030000C943A010C943A010C943A010C943A0154
:100040000C943A010C943A010C943A010C943A0144
:100050000C943A010C943A010C943A010C94C102AC
:100060000C943A010C9435030C940B030C943A0154
:100070000C943A010C943A010C943A010C943A0114
:100080000C943A010C943A010C943A010C943A0104
:100090000C943A010C943A010C943A010C943A01F4
:1000A0000C943A010C943A010C943A010C943A01E4
:1000B0000C943A010C943A010C943A010C943A01D4
:1000C0000C943A010C943A010C943A010C943A01C4
:1000D0000C943A010C943A010C943A010C943A01B4
:1000E0000C943A01084AD73B3BCE016E84BCBFFD5D
:1000F000C12F3D6C74319ABD56833DDA3D00C77FF8
:1001000011BED9E4BB4C3E916BAAAABE0000008090
:100110003F05A84CCDB2D44EB93836A9020C50B91F
:10012000918688083CA6AAAA2ABE000000803F004B
:100130000C949A010C9469010C94F5050C94D2016D
:100140000C943C010C941F020C948C010C947801CB
:1001500000002200250028002B002E003100340072
:1001600002010000050108010B010000210024002C
:1001700027002A002D003000330001010000040197
:1001800007010A0105050505070508080808020218
:1001900002020A0A08080404040401010101010121
:1001A00001010303030303030303040707070C0C04
:1001B0000C0C0C0C0C0C02020202060606060606CB
:1001C00006060B0B0B0B0B0B0B0B01021020200870
:1001D00008102040102040800201020108040201A2
:1001E0000102040810204080804020100804020111
:1001F000800402018040201008040201080402016A
:1002000001020408102040800102040810204080F0
:10021000F50511241FBECFEFD1E2DEBFCDBF00E058
:100220000CBF12E0A0E0B2E0EAE3F3E100E00BBFB4
:1002300002C007900D92A632B107D9F722E0A6E2DC
:10024000B2E001C01D92A83DB207E1F711E0C9E09C
:10025000D1E000E006C021970109802FFE010E9435
:100260009309C830D10780E00807A9F70E946B0303
:100270000C949B090C940000AF92BF92CF92DF9236
:10028000EF92FF920F931F93CF93DF936C017B014B
:100290008B01040F151FEB015E01AE18BF08C017DC
:1002A000D10759F06991D601ED91FC910190F0814F
:1002B000E02DC6011995892B79F7C501DF91CF9102
:1002C0001F910F91FF90EF90DF90CF90BF90AF9074
:1002D0000895FC01538D448D252F30E0842F90E04C
:1002E000821B930B541710F0CF9608950197089531
:1002F000FC01918D828D981761F0A28DAE0FBF2FFA
:10030000B11D5D968C91928D9F5F9F73928F90E04F
:1003100008958FEF9FEF0895FC01918D828D9817BE
:1003200031F0828DE80FF11D858D90E008958FEFFB
:100330009FEF0895FC01918D228D892F90E0805CC4
:100340009F4F821B91098F73992708958BE392E049
:100350000E949A0121E0892B09F420E0822F089560
:10036000FC01A48DA80FB92FB11DA35ABF4F2C912A
:10037000848D90E001968F739927848FA689B78921
:100380002C93A089B1898C91837080648C93938D18
:10039000848D981306C00288F389E02D80818F7DBB
:1003A00080830895EF92FF920F931F93CF93DF9373
:1003B000EC0181E0888F9B8D8C8D98131AC0E889A1
:1003C000F989808185FF15C09FB7F894EE89FF8970
:1003D0006083E889F98980818370806480839FBF0E
:1003E00081E090E0DF91CF911F910F91FF90EF900E
:1003F0000895F62E0B8D10E00F5F1F4F0F7311271E
:10040000E02E8C8D8E110CC00FB607FCFACFE88958
:10041000F989808185FFF5CFCE010E94B001F1CF2F
:10042000EB8DEC0FFD2FF11DE35AFF4FF0829FB7CC
:10043000F8940B8FEA89FB8980818062CFCFCF93BC
:10044000DF93EC01888D8823B9F0AA89BB89E889FC
:10045000F9898C9185FD03C0808186FD0DC00FB6A2
:1004600007FCF7CF8C9185FFF2CF808185FFEDCF20
:10047000CE010E94B001E9CFDF91CF91089580E0D5
:1004800090E0892B29F00E94A60181110E940000B2
:1004900080E090E0892B49F080E090E0892B29F002
:1004A0000E94000081110E94000080E090E0892BF2
:1004B00049F080E090E0892B29F00E940000811132
:1004C0000E94000080E090E0892B49F080E090E0FD
:1004D000892B29F00E94000081110C9400000895DE
:1004E000FC0101900020E9F73197AF01481B590B3F
:1004F000BC018BE392E00C943C018F929F92AF92EF
:10050000BF920F931F93CF93DF93CDB7DEB7A19721
:100510000FB6F894DEBF0FBECDBF19A2423008F46B
:100520004AE08E010F5D1F4F842E912CB12CA12C1F
:10053000A50194010E947109E62FB901CA01EA30B0
:10054000F4F4E05DD801EE938D01232B242B252BB1
:1005500079F790E080E0109719F0CD010E947002C9
:10056000A1960FB6F894DEBF0FBECDBFDF91CF913D
:100570001F910F91BF90AF909F908F900895E95C6D
:10058000E1CF1F920F920FB60F9211242F933F933A
:100590008F939F93AF93BF938091370290913802CE
:1005A000A0913902B0913A023091360223E0230F34
:1005B0002D3758F50196A11DB11D20933602809369
:1005C000370290933802A0933902B0933A02809197
:1005D000320290913302A0913402B091350201961B
:1005E000A11DB11D8093320290933302A093340277
:1005F000B0933502BF91AF919F918F913F912F9111
:100600000F900FBE0F901F90189526E8230F0296AB
:10061000A11DB11DD2CF1F920F920FB60F921124C0
:100620000BB60F922F933F934F935F936F937F93EC
:100630008F939F93AF93BF93EF93FF938BE392E0DE
:100640000E94B001FF91EF91BF91AF919F918F9167
:100650007F916F915F914F913F912F910F900BBEC2
:100660000F900FBE0F901F9018951F920F920FB60C
:100670000F9211240BB60F922F938F939F93EF93AA
:10068000FF93E0914B02F0914C028081E091510286
:10069000F091520282FD1DC09081809154028F5FC3
:1006A0008F7320915502821741F0E0915402F0E0DF
:1006B000E55CFD4F958F80935402FF91EF919F91E0
:1006C0008F912F910F900BBE0F900FBE0F901F9028
:1006D00018958081F2CFCF93DF9300D000D000D067
:1006E0001F92CDB7DEB7789484B5826084BD84B59F
:1006F000816084BD85B5826085BD85B5816085BD1D
:1007000080916E00816080936E00109281008091D4
:10071000810082608093810080918100816080935C
:100720008100809180008160809380008091B10081
:1007300084608093B1008091B00081608093B000AC
:1007400080919100826080939100809191008160FE
:1007500080939100809190008160809390008091BF
:10076000A10082608093A1008091A10081608093AC
:10077000A1008091A00081608093A0008091210160
:100780008260809321018091210181608093210109
:100790008091200181608093200180917A008460A3
:1007A00080937A0080917A00826080937A008091B1
:1007B0007A00816080937A0080917A0080688093CB
:1007C0007A001092C100E0E0F2E02491EAEBF1E05F
:1007D00084918823C9F090E0880F991FFC01E659A5
:1007E000FE4F65917491FC01E05BFE4FA591B491C1
:1007F0009FB7F894FB0180812095822380838C91A0
:10080000E22FE823EC939FBFE0914B02F0914C0262
:1008100082E08083E0914702F09148021082E091EB
:100820004902F0914A028FEC808310925302E091CA
:100830004F02F091500286E08083E0914D02F091EA
:100840004E02808180618083E0914D02F0914E02E2
:10085000808188608083E0914D02F0914E0280811A
:1008600080688083E0914D02F0914E0280818F7DFF
:1008700080831A86198620E4322E03E210E08091EC
:100880007B00877F80937B0030927C0080917A0090
:10089000806480937A0080917A0086FDFCCF60911D
:1008A000780070917900072E000C880B990B0E943C
:1008B000AE0720E030E040E05BE30E94D10820E09A
:1008C00030E040E85FE30E9422066B017C018090EB
:1008D000000290900102A0900202B09003022985CC
:1008E0003A85B901330F880B990B0E94AE072B0193
:1008F0003C012BED3FE049EC50E4C501B4010E94FE
:10090000D1089B01AC01C301B2010E94D10820E0D3
:1009100034E244E759E40E940B072B013C010E949A
:10092000060769837A838B839C83C301B2010E948B
:100930003E096D837E838F83988726E636E646E6FA
:100940005FE360912E0270912F02809130029091AE
:1009500031020E94D1082B013C0129813A814B814F
:100960005C81C701B6010E94D1082DEC3CEC4CEC37
:100970005DE30E94D1089B01AC01C301B2010E945A
:1009800023062B013C0126E636E646E65FE360914E
:100990002A0270912B0280912C0290912D020E94CC
:1009A000D10869837A838B839C832D813E814F811B
:1009B0005885C701B6010E94D1082DEC3CEC4CECE7
:1009C0005DE30E94D1089B01AC0169817A818B8132
:1009D0009C810E94230640922E0250922F02609228
:1009E00030027092310260932A0270932B0280933E
:1009F0002C0290932D02A30192010E94A2062AE0EC
:100A000037ED43E25CE30E94D10820912602309149
:100A1000270240912802509129020E9423069B013F
:100A2000AC01209326023093270240932802509372
:100A30002902C501B4010E9423064B015C0120E09C
:100A40003CE541EC57E40E94010787FD2CC020E003
:100A500034E445EC57E4C501B4010E94C4081816FB
:100A600054F18092000290920102A0920202B09290
:100A70000302A7019601C701B6010E944A09882313
:100A800011F186E192E00E94700282E292E00E94FF
:100A90007002C8010197F1F749855A854F5F5F4F92
:100AA0005A874987ECCE812C9CE5992E91ECA92E92
:100AB00097E4B92ED6CF812C84E4982E85ECA82E0D
:100AC00087E4B82ECECF46015701E894B7F82FEF50
:100AD0003FEF4FE75FE7C501B4010E944A0981116A
:100AE0000DC02FEF3FEF4FE75FE7C501B4010E9454
:100AF000010718161CF48AE192E0C5CF2FEF3FEFF3
:100B00004FE75FE4C701B6010E94C40818161CF441
:100B10008EE192E0B8CF2FEF3FEF4FE75FECC701D8
:100B2000B6010E94010787FDF3CF20E030E0A90164
:100B3000C701B6010E94010787FF09C06DE28BE380
:100B400092E00E94D201F7FAF094F7F8F0942AE0CC
:100B500037ED43EA5BE3C701B6010E9423064B0170
:100B60005C010E947D076B017C010E94AC079B0128
:100B7000AC01C501B4010E9422064B015C014AE0B0
:100B8000C701B6010E947D026EE28BE392E00E94F3
:100B9000D20120E030E040E251E4C501B4010E94FE
:100BA000D1084B015C010E947D076B01F12CE12C07
:100BB0004AE0C701B6010E947D02C701B6010E944A
:100BC000AC079B01AC01C501B4010E94220620E0E4
:100BD00030E040E251E40E94D1080E947D0790E09D
:100BE00080E04AE00E947D0250CFEBE3F2E0138206
:100BF000128288EE93E0A0E0B0E084839583A68320
:100C0000B78388E092E09183808385EC90E09587BC
:100C1000848784EC90E09787868780EC90E0918BC6
:100C2000808B81EC90E0938B828B82EC90E0958BB3
:100C3000848B86EC90E0978B868B118E128E138EB0
:100C4000148E08955058BB27AA270E943A060C9488
:100C500076080E943D0838F00E94440820F039F4DC
:100C60009F3F19F426F40C9413080EF4E095E7FB6B
:100C70000C940D08E92F0E949B0858F3BA176207DD
:100C800073078407950720F079F4A6F50C94BD0846
:100C90000EF4E0950B2EBA2FA02D0B01B901900197
:100CA0000C01CA01A0011124FF27591B99F0593FDB
:100CB00050F4503E68F11A16F040A22F232F342F23
:100CC0004427585FF3CF469537952795A795F04071
:100CD0005395C9F77EF41F16BA0B620B730B840B86
:100CE000BAF09150A1F0FF0FBB1F661F771F881F3E
:100CF000C2F70EC0BA0F621F731F841F48F4879596
:100D000077956795B795F7959E3F08F0B0CF939587
:100D1000880F08F09927EE0F9795879508950E9400
:100D20003D0860F080E891E009F49EEF0E944408DD
:100D300028F040E851E071F45EEF0CC00C94130809
:100D40000C94BD08E92FE0780E949B0840F3092E1F
:100D5000052AB1F3261737074807590738F00E2E32
:100D600007F8E02569F0E025E0640AC0EF6307F8C2
:100D7000009407FADB01B9019D01DC01CA01AD0154
:100D8000EF930E9422070E9476080E94D2065F918C
:100D9000552339F02BED3FE049E450FD49EC0C942C
:100DA00023060895DF93DD27B92FBF7740E85FE37F
:100DB0001616170648075B0718F4D92F0E94C908B2
:100DC0009F938F937F936F930E944609E4EEF0E028
:100DD0000E9416080E9476082F913F914F915F91D3
:100DE0000E94E408DD2351F09058A2EA2AED3FE08A
:100DF00049EC5FE3D0785D270E943A06DF910C94BE
:100E000076080E94E90708F481E008950E944D08E1
:100E1000E3950C9487080E941F070C9476080E94A3
:100E2000440858F00E943D0840F029F45F3F29F043
:100E30000C940D0851110C94BE080C9413080E94D8
:100E40009B0868F39923B1F3552391F3951B550B38
:100E5000BB27AA2762177307840738F09F5F5F4F8D
:100E6000220F331F441FAA1FA9F335D00E2E3AF0CC
:100E7000E0E832D091505040E695001CCAF72BD0E4
:100E8000FE2F29D0660F771F881FBB1F2617370735
:100E90004807AB07B0E809F0BB0B802DBF01FF2767
:100EA00093585F4F3AF09E3F510578F00C940D082F
:100EB0000C94BE085F3FE4F3983ED4F38695779593
:100EC0006795B795F7959F5FC9F7880F911D969520
:100ED000879597F90895E1E0660F771F881FBB1F7C
:100EE000621773078407BA0720F0621B730B840B29
:100EF000BA0BEE1F88F7E09508950E94A30888F0CA
:100F00009F5798F0B92F9927B751B0F0E1F0660FCD
:100F1000771F881F991F1AF0BA95C9F714C0B1300E
:100F200091F00E94BD08B1E008950C94BD08672FB0
:100F3000782F8827B85F39F0B93FCCF3869577953D
:100F40006795B395D9F73EF4909580957095619526
:100F50007F4F8F4F9F4F0895E89409C097FB3EF451
:100F600090958095709561957F4F8F4F9F4F9923F6
:100F7000A9F0F92F96E9BB279395F6958795779574
:100F80006795B795F111F8CFFAF4BB0F11F460FF34
:100F90001BC06F5F7F4F8F4F9F4F16C0882311F08C
:100FA00096E911C0772321F09EE8872F762F05C0A0
:100FB000662371F096E8862F70E060E02AF09A953B
:100FC000660F771F881FDAF7880F9695879597F930
:100FD0000895990F0008550FAA0BE0E8FEEF1616CA
:100FE0001706E807F907C0F012161306E407F5071D
:100FF00098F0621B730B840B950B39F40A2661F091
:10100000232B242B252B21F408950A2609F4A14033
:10101000A6958FEF811D811D089597F99F6780E840
:1010200070E060E008959FEF80EC0895DF93CF9328
:101030001F930F93FF92EF92DF927B018C016894D4
:1010400006C0DA2EEF010E94E408FE01E894A591A3
:101050002591359145915591A6F3EF010E943A06ED
:10106000FE019701A801DA9469F7DF90EF90FF90F5
:101070000F911F91CF91DF91089500240A941616C5
:10108000170618060906089500240A941216130676
:101090001406050608950C9413080E94A308D8F3BB
:1010A000E894E0E0BB279F57F0F02AED3FE049ECE1
:1010B00006C0EE0FBB0F661F771F881F28F0B23ADD
:1010C00062077307840728F0B25A620B730B840B14
:1010D000E3959A9572F7803830F49A95BB0F661FA6
:1010E000771F881FD2F790480C945109092E03945A
:1010F000000C11F4882352F0BB0F40F4BF2B11F405
:1011000060FF04C06F5F7F4F8F4F9F4F0895EF9335
:10111000E0FF07C0A2EA2AED3FE049EC5FEB0E9446
:101120003A060E9476080F90039401FC9058E1E182
:10113000F1E00C945D0957FD9058440F551F59F08C
:101140005F3F71F04795880F97FB991F61F09F3FB4
:1011500079F087950895121613061406551FF2CFDD
:101160004695F1DF08C0161617061806991FF1CF2D
:1011700086957105610508940895E894BB27662754
:101180007727CB0197F908950E94E90708F48FEFBC
:1011900008959B01AC0160E070E080E89FE30C944F
:1011A0000B070E94E4080C9476080E943D0838F072
:1011B0000E94440820F0952311F00C940D080C9423
:1011C000130811240C94BE080E949B0870F3959F8D
:1011D000C1F3950F50E0551F629FF001729FBB272E
:1011E000F00DB11D639FAA27F00DB11DAA1F649FCA
:1011F0006627B00DA11D661F829F2227B00DA11D7D
:10120000621F739FB00DA11D621F839FA00D611D02
:10121000221F749F3327A00D611D231F849F600D23
:10122000211D822F762F6A2F11249F5750409AF04C
:10123000F1F088234AF0EE0FFF1FBB1F661F771FD8
:10124000881F91505040A9F79E3F510580F00C94A3
:101250000D080C94BE085F3FE4F3983ED4F38695E6
:1012600077956795B795F795E7959F5FC1F7FE2B43
:10127000880F911D9695879597F908959F930E94E1
:101280004D080F9007FCEE5F0C9487089B01AC01A2
:101290000C94D1080E94E907880B990B08959F3F91
:1012A00031F0915020F4879577956795B795880F21
:1012B000911D9695879597F908959F938F937F93A6
:1012C0006F93FF93EF939B01AC010E94D108EF91C4
:1012D000FF910E9416082F913F914F915F910C94BE
:1012E000D108A1E21A2EAA1BBB1BFD010DC0AA1F2B
:1012F000BB1FEE1FFF1FA217B307E407F50720F07F
:10130000A21BB30BE40BF50B661F771F881F991FF9
:101310001A9469F760957095809590959B01AC0142
:10132000BD01CF010895EE0FFF1F881F8BBF0790EF
:0A133000F691E02D1994F894FFCF18
:10133A000050C34700000000D2013C0169011F02AE
:10134A009A0178018C016E616E00696E66006F7693
:06135A0066000D0A000010
:00000001FF
